{
  "_format": "hh-sol-artifact-1",
  "contractName": "SafeLock",
  "sourceName": "contracts/SafeLock.sol",
  "abi": [
    {
      "inputs": [
        {
          "internalType": "address",
          "name": "_cUSDToken",
          "type": "address"
        },
        {
          "internalType": "address",
          "name": "initialOwner",
          "type": "address"
        }
      ],
      "stateMutability": "nonpayable",
      "type": "constructor"
    },
    {
      "inputs": [
        {
          "internalType": "address",
          "name": "token",
          "type": "address"
        }
      ],
      "name": "SafeERC20FailedOperation",
      "type": "error"
    },
    {
      "anonymous": false,
      "inputs": [
        {
          "indexed": true,
          "internalType": "address",
          "name": "pauser",
          "type": "address"
        },
        {
          "indexed": false,
          "internalType": "uint256",
          "name": "timestamp",
          "type": "uint256"
        }
      ],
      "name": "ContractPaused",
      "type": "event"
    },
    {
      "anonymous": false,
      "inputs": [
        {
          "indexed": true,
          "internalType": "address",
          "name": "unpauser",
          "type": "address"
        },
        {
          "indexed": false,
          "internalType": "uint256",
          "name": "timestamp",
          "type": "uint256"
        }
      ],
      "name": "ContractUnpaused",
      "type": "event"
    },
    {
      "anonymous": false,
      "inputs": [
        {
          "indexed": true,
          "internalType": "address",
          "name": "previousOwner",
          "type": "address"
        },
        {
          "indexed": true,
          "internalType": "address",
          "name": "newOwner",
          "type": "address"
        }
      ],
      "name": "OwnershipTransferred",
      "type": "event"
    },
    {
      "anonymous": false,
      "inputs": [
        {
          "indexed": true,
          "internalType": "address",
          "name": "owner",
          "type": "address"
        },
        {
          "indexed": false,
          "internalType": "uint256",
          "name": "amount",
          "type": "uint256"
        },
        {
          "indexed": false,
          "internalType": "uint256",
          "name": "timestamp",
          "type": "uint256"
        }
      ],
      "name": "PenaltiesWithdrawn",
      "type": "event"
    },
    {
      "anonymous": false,
      "inputs": [
        {
          "indexed": false,
          "internalType": "uint256",
          "name": "totalPenalties",
          "type": "uint256"
        },
        {
          "indexed": false,
          "internalType": "uint256",
          "name": "totalActiveSavings",
          "type": "uint256"
        }
      ],
      "name": "PenaltyPoolUpdated",
      "type": "event"
    },
    {
      "anonymous": false,
      "inputs": [
        {
          "indexed": true,
          "internalType": "uint256",
          "name": "lockId",
          "type": "uint256"
        },
        {
          "indexed": true,
          "internalType": "address",
          "name": "owner",
          "type": "address"
        },
        {
          "indexed": false,
          "internalType": "uint256",
          "name": "amount",
          "type": "uint256"
        },
        {
          "indexed": false,
          "internalType": "uint256",
          "name": "lockTime",
          "type": "uint256"
        },
        {
          "indexed": false,
          "internalType": "uint256",
          "name": "unlockTime",
          "type": "uint256"
        }
      ],
      "name": "SavingsLocked",
      "type": "event"
    },
    {
      "anonymous": false,
      "inputs": [
        {
          "indexed": true,
          "internalType": "uint256",
          "name": "lockId",
          "type": "uint256"
        },
        {
          "indexed": true,
          "internalType": "address",
          "name": "owner",
          "type": "address"
        },
        {
          "indexed": false,
          "internalType": "uint256",
          "name": "amount",
          "type": "uint256"
        },
        {
          "indexed": false,
          "internalType": "uint256",
          "name": "penaltyAmount",
          "type": "uint256"
        },
        {
          "indexed": false,
          "internalType": "bool",
          "name": "isEarlyWithdrawal",
          "type": "bool"
        }
      ],
      "name": "SavingsWithdrawn",
      "type": "event"
    },
    {
      "anonymous": false,
      "inputs": [
        {
          "indexed": true,
          "internalType": "address",
          "name": "oldToken",
          "type": "address"
        },
        {
          "indexed": true,
          "internalType": "address",
          "name": "newToken",
          "type": "address"
        }
      ],
      "name": "TokenUpdated",
      "type": "event"
    },
    {
      "anonymous": false,
      "inputs": [
        {
          "indexed": true,
          "internalType": "address",
          "name": "user",
          "type": "address"
        },
        {
          "indexed": false,
          "internalType": "uint256",
          "name": "deactivationDate",
          "type": "uint256"
        },
        {
          "indexed": false,
          "internalType": "uint256",
          "name": "totalRefunded",
          "type": "uint256"
        }
      ],
      "name": "UserDeactivated",
      "type": "event"
    },
    {
      "anonymous": false,
      "inputs": [
        {
          "indexed": true,
          "internalType": "address",
          "name": "user",
          "type": "address"
        },
        {
          "indexed": false,
          "internalType": "string",
          "name": "username",
          "type": "string"
        },
        {
          "indexed": false,
          "internalType": "uint256",
          "name": "timestamp",
          "type": "uint256"
        }
      ],
      "name": "UserProfileUpdated",
      "type": "event"
    },
    {
      "anonymous": false,
      "inputs": [
        {
          "indexed": true,
          "internalType": "address",
          "name": "user",
          "type": "address"
        },
        {
          "indexed": false,
          "internalType": "string",
          "name": "username",
          "type": "string"
        },
        {
          "indexed": false,
          "internalType": "uint256",
          "name": "registrationDate",
          "type": "uint256"
        }
      ],
      "name": "UserRegistered",
      "type": "event"
    },
    {
      "inputs": [],
      "name": "EARLY_WITHDRAWAL_PENALTY",
      "outputs": [
        {
          "internalType": "uint256",
          "name": "",
          "type": "uint256"
        }
      ],
      "stateMutability": "view",
      "type": "function"
    },
    {
      "inputs": [],
      "name": "MAX_LOCK_AMOUNT",
      "outputs": [
        {
          "internalType": "uint256",
          "name": "",
          "type": "uint256"
        }
      ],
      "stateMutability": "view",
      "type": "function"
    },
    {
      "inputs": [],
      "name": "MAX_LOCK_DURATION",
      "outputs": [
        {
          "internalType": "uint256",
          "name": "",
          "type": "uint256"
        }
      ],
      "stateMutability": "view",
      "type": "function"
    },
    {
      "inputs": [],
      "name": "MAX_USER_LOCKS",
      "outputs": [
        {
          "internalType": "uint256",
          "name": "",
          "type": "uint256"
        }
      ],
      "stateMutability": "view",
      "type": "function"
    },
    {
      "inputs": [],
      "name": "MIN_LOCK_DURATION",
      "outputs": [
        {
          "internalType": "uint256",
          "name": "",
          "type": "uint256"
        }
      ],
      "stateMutability": "view",
      "type": "function"
    },
    {
      "inputs": [],
      "name": "TIME_BUFFER",
      "outputs": [
        {
          "internalType": "uint256",
          "name": "",
          "type": "uint256"
        }
      ],
      "stateMutability": "view",
      "type": "function"
    },
    {
      "inputs": [],
      "name": "cUSDToken",
      "outputs": [
        {
          "internalType": "contract IERC20",
          "name": "",
          "type": "address"
        }
      ],
      "stateMutability": "view",
      "type": "function"
    },
    {
      "inputs": [],
      "name": "canWithdrawPenalties",
      "outputs": [
        {
          "internalType": "bool",
          "name": "",
          "type": "bool"
        }
      ],
      "stateMutability": "view",
      "type": "function"
    },
    {
      "inputs": [
        {
          "internalType": "uint256",
          "name": "lockDuration",
          "type": "uint256"
        },
        {
          "internalType": "uint256",
          "name": "amount",
          "type": "uint256"
        }
      ],
      "name": "createSavingsLock",
      "outputs": [],
      "stateMutability": "nonpayable",
      "type": "function"
    },
    {
      "inputs": [],
      "name": "deactivateAccount",
      "outputs": [],
      "stateMutability": "nonpayable",
      "type": "function"
    },
    {
      "inputs": [],
      "name": "getActiveSavingsCount",
      "outputs": [
        {
          "internalType": "uint256",
          "name": "",
          "type": "uint256"
        }
      ],
      "stateMutability": "view",
      "type": "function"
    },
    {
      "inputs": [
        {
          "internalType": "uint256",
          "name": "lockId",
          "type": "uint256"
        }
      ],
      "name": "getLockDetails",
      "outputs": [
        {
          "components": [
            {
              "internalType": "uint256",
              "name": "id",
              "type": "uint256"
            },
            {
              "internalType": "address",
              "name": "owner",
              "type": "address"
            },
            {
              "internalType": "uint256",
              "name": "amount",
              "type": "uint256"
            },
            {
              "internalType": "uint256",
              "name": "lockTime",
              "type": "uint256"
            },
            {
              "internalType": "uint256",
              "name": "unlockTime",
              "type": "uint256"
            },
            {
              "internalType": "bool",
              "name": "isActive",
              "type": "bool"
            },
            {
              "internalType": "bool",
              "name": "isWithdrawn",
              "type": "bool"
            },
            {
              "internalType": "uint256",
              "name": "penaltyAmount",
              "type": "uint256"
            }
          ],
          "internalType": "struct SafeLock.SavingsLock",
          "name": "",
          "type": "tuple"
        }
      ],
      "stateMutability": "view",
      "type": "function"
    },
    {
      "inputs": [],
      "name": "getPauseStatus",
      "outputs": [
        {
          "internalType": "bool",
          "name": "generalPaused",
          "type": "bool"
        },
        {
          "internalType": "uint256",
          "name": "generalPauseTime",
          "type": "uint256"
        }
      ],
      "stateMutability": "view",
      "type": "function"
    },
    {
      "inputs": [],
      "name": "getPenaltyPool",
      "outputs": [
        {
          "components": [
            {
              "internalType": "uint256",
              "name": "totalPenalties",
              "type": "uint256"
            },
            {
              "internalType": "uint256",
              "name": "totalActiveSavings",
              "type": "uint256"
            }
          ],
          "internalType": "struct SafeLock.PenaltyPool",
          "name": "",
          "type": "tuple"
        }
      ],
      "stateMutability": "view",
      "type": "function"
    },
    {
      "inputs": [
        {
          "internalType": "address",
          "name": "user",
          "type": "address"
        }
      ],
      "name": "getUserLocksWithDetails",
      "outputs": [
        {
          "internalType": "uint256[]",
          "name": "lockIds",
          "type": "uint256[]"
        },
        {
          "components": [
            {
              "internalType": "uint256",
              "name": "id",
              "type": "uint256"
            },
            {
              "internalType": "address",
              "name": "owner",
              "type": "address"
            },
            {
              "internalType": "uint256",
              "name": "amount",
              "type": "uint256"
            },
            {
              "internalType": "uint256",
              "name": "lockTime",
              "type": "uint256"
            },
            {
              "internalType": "uint256",
              "name": "unlockTime",
              "type": "uint256"
            },
            {
              "internalType": "bool",
              "name": "isActive",
              "type": "bool"
            },
            {
              "internalType": "bool",
              "name": "isWithdrawn",
              "type": "bool"
            },
            {
              "internalType": "uint256",
              "name": "penaltyAmount",
              "type": "uint256"
            }
          ],
          "internalType": "struct SafeLock.SavingsLock[]",
          "name": "locks",
          "type": "tuple[]"
        }
      ],
      "stateMutability": "view",
      "type": "function"
    },
    {
      "inputs": [
        {
          "internalType": "address",
          "name": "user",
          "type": "address"
        }
      ],
      "name": "getUserProfile",
      "outputs": [
        {
          "components": [
            {
              "internalType": "string",
              "name": "username",
              "type": "string"
            },
            {
              "internalType": "uint256",
              "name": "registrationDate",
              "type": "uint256"
            },
            {
              "internalType": "bool",
              "name": "isActive",
              "type": "bool"
            },
            {
              "internalType": "uint256",
              "name": "lastActivity",
              "type": "uint256"
            },
            {
              "internalType": "string",
              "name": "profileImageHash",
              "type": "string"
            }
          ],
          "internalType": "struct SafeLock.UserProfile",
          "name": "",
          "type": "tuple"
        }
      ],
      "stateMutability": "view",
      "type": "function"
    },
    {
      "inputs": [],
      "name": "isPaused",
      "outputs": [
        {
          "internalType": "bool",
          "name": "",
          "type": "bool"
        }
      ],
      "stateMutability": "view",
      "type": "function"
    },
    {
      "inputs": [
        {
          "internalType": "address",
          "name": "user",
          "type": "address"
        }
      ],
      "name": "isUserRegistered",
      "outputs": [
        {
          "internalType": "bool",
          "name": "",
          "type": "bool"
        }
      ],
      "stateMutability": "view",
      "type": "function"
    },
    {
      "inputs": [],
      "name": "owner",
      "outputs": [
        {
          "internalType": "address",
          "name": "",
          "type": "address"
        }
      ],
      "stateMutability": "view",
      "type": "function"
    },
    {
      "inputs": [],
      "name": "pause",
      "outputs": [],
      "stateMutability": "nonpayable",
      "type": "function"
    },
    {
      "inputs": [],
      "name": "pauseTimestamp",
      "outputs": [
        {
          "internalType": "uint256",
          "name": "",
          "type": "uint256"
        }
      ],
      "stateMutability": "view",
      "type": "function"
    },
    {
      "inputs": [],
      "name": "penaltyPool",
      "outputs": [
        {
          "internalType": "uint256",
          "name": "totalPenalties",
          "type": "uint256"
        },
        {
          "internalType": "uint256",
          "name": "totalActiveSavings",
          "type": "uint256"
        }
      ],
      "stateMutability": "view",
      "type": "function"
    },
    {
      "inputs": [
        {
          "internalType": "string",
          "name": "username",
          "type": "string"
        },
        {
          "internalType": "string",
          "name": "profileImageHash",
          "type": "string"
        }
      ],
      "name": "registerUser",
      "outputs": [],
      "stateMutability": "nonpayable",
      "type": "function"
    },
    {
      "inputs": [
        {
          "internalType": "uint256",
          "name": "",
          "type": "uint256"
        }
      ],
      "name": "savingsLocks",
      "outputs": [
        {
          "internalType": "uint256",
          "name": "id",
          "type": "uint256"
        },
        {
          "internalType": "address",
          "name": "owner",
          "type": "address"
        },
        {
          "internalType": "uint256",
          "name": "amount",
          "type": "uint256"
        },
        {
          "internalType": "uint256",
          "name": "lockTime",
          "type": "uint256"
        },
        {
          "internalType": "uint256",
          "name": "unlockTime",
          "type": "uint256"
        },
        {
          "internalType": "bool",
          "name": "isActive",
          "type": "bool"
        },
        {
          "internalType": "bool",
          "name": "isWithdrawn",
          "type": "bool"
        },
        {
          "internalType": "uint256",
          "name": "penaltyAmount",
          "type": "uint256"
        }
      ],
      "stateMutability": "view",
      "type": "function"
    },
    {
      "inputs": [
        {
          "internalType": "address",
          "name": "newOwner",
          "type": "address"
        }
      ],
      "name": "transferOwnership",
      "outputs": [],
      "stateMutability": "nonpayable",
      "type": "function"
    },
    {
      "inputs": [],
      "name": "unpause",
      "outputs": [],
      "stateMutability": "nonpayable",
      "type": "function"
    },
    {
      "inputs": [
        {
          "internalType": "string",
          "name": "newUsername",
          "type": "string"
        },
        {
          "internalType": "string",
          "name": "newProfileImageHash",
          "type": "string"
        }
      ],
      "name": "updateProfile",
      "outputs": [],
      "stateMutability": "nonpayable",
      "type": "function"
    },
    {
      "inputs": [
        {
          "internalType": "address",
          "name": "newToken",
          "type": "address"
        }
      ],
      "name": "updateToken",
      "outputs": [],
      "stateMutability": "nonpayable",
      "type": "function"
    },
    {
      "inputs": [
        {
          "internalType": "address",
          "name": "",
          "type": "address"
        }
      ],
      "name": "userLockInfo",
      "outputs": [
        {
          "internalType": "uint256",
          "name": "totalActiveAmount",
          "type": "uint256"
        },
        {
          "internalType": "uint256",
          "name": "totalActiveLocks",
          "type": "uint256"
        }
      ],
      "stateMutability": "view",
      "type": "function"
    },
    {
      "inputs": [
        {
          "internalType": "address",
          "name": "",
          "type": "address"
        },
        {
          "internalType": "uint256",
          "name": "",
          "type": "uint256"
        }
      ],
      "name": "userLocks",
      "outputs": [
        {
          "internalType": "uint256",
          "name": "",
          "type": "uint256"
        }
      ],
      "stateMutability": "view",
      "type": "function"
    },
    {
      "inputs": [
        {
          "internalType": "address",
          "name": "",
          "type": "address"
        }
      ],
      "name": "userProfiles",
      "outputs": [
        {
          "internalType": "string",
          "name": "username",
          "type": "string"
        },
        {
          "internalType": "uint256",
          "name": "registrationDate",
          "type": "uint256"
        },
        {
          "internalType": "bool",
          "name": "isActive",
          "type": "bool"
        },
        {
          "internalType": "uint256",
          "name": "lastActivity",
          "type": "uint256"
        },
        {
          "internalType": "string",
          "name": "profileImageHash",
          "type": "string"
        }
      ],
      "stateMutability": "view",
      "type": "function"
    },
    {
      "inputs": [
        {
          "internalType": "string",
          "name": "",
          "type": "string"
        }
      ],
      "name": "usernameToAddress",
      "outputs": [
        {
          "internalType": "address",
          "name": "",
          "type": "address"
        }
      ],
      "stateMutability": "view",
      "type": "function"
    },
    {
      "inputs": [],
      "name": "withdrawPenalties",
      "outputs": [],
      "stateMutability": "nonpayable",
      "type": "function"
    },
    {
      "inputs": [
        {
          "internalType": "uint256",
          "name": "lockId",
          "type": "uint256"
        }
      ],
      "name": "withdrawSavings",
      "outputs": [],
      "stateMutability": "nonpayable",
      "type": "function"
    }
  ],
  "bytecode": "0x608060405234801561001057600080fd5b5060405161300a38038061300a83398101604081905261002f91610189565b6001600160a01b03811661008a5760405162461bcd60e51b815260206004820152601560248201527f496e76616c6964206f776e65722061646472657373000000000000000000000060448201526064015b60405180910390fd5b6001600160a01b0382166100e05760405162461bcd60e51b815260206004820152601560248201527f496e76616c696420746f6b656e206164647265737300000000000000000000006044820152606401610081565b60048054610100600160a81b0319166101006001600160a01b038516021790556101098161011d565b50506000805460ff60a01b191690556101bc565b600080546001600160a01b038381166001600160a01b0319831681178455604051919092169283917f8be0079c531659141344cd1fd0a4f28419497f9722a3daafe3b4186f6b6457e09190a35050565b80516001600160a01b038116811461018457600080fd5b919050565b6000806040838503121561019c57600080fd5b6101a58361016d565b91506101b36020840161016d565b90509250929050565b612e3f806101cb6000396000f3fe608060405234801561001057600080fd5b50600436106102065760003560e01c8063976846e91161011a578063b918ee25116100ad578063de9864501161007c578063de98645014610560578063e040e9a014610573578063e7ee4b791461057b578063f2fde38b14610583578063f825f1431461059657600080fd5b8063b918ee25146104e6578063bb21615a146104ee578063c9d3cc6a1461052c578063d61307501461053f57600080fd5b8063aa33fedb116100e9578063aa33fedb146104ae578063ad84f341146104c1578063addf14d8146104ca578063b187bd26146104d257600080fd5b8063976846e9146103d2578063987ee156146103da5780639b1b99a3146103fa578063a57c29de1461040457600080fd5b80634a42fc891161019d57806378b4330f1161016c57806378b4330f146103895780637ad3def2146103935780638456cb59146103a65780638da5cb5b146103ae5780638ed3d8c6146103bf57600080fd5b80634a42fc891461032b5780634f1bfc9e1461035557806353653131146103605780635b15bfd91461036957600080fd5b80631d9023cb116101d95780631d9023cb146102b7578063332d56d7146102e05780633e5a2dc7146103045780633f4ba83a1461032357600080fd5b80630a36614f1461020b5780630ea86ad814610233578063163f7522146102635780631d2e4afd146102a2575b600080fd5b600a54600b54610219919082565b604080519283526020830191909152015b60405180910390f35b60045461024b9061010090046001600160a01b031681565b6040516001600160a01b03909116815260200161022a565b6102926102713660046126c6565b6001600160a01b031660009081526008602052604090206002015460ff1690565b604051901515815260200161022a565b6102b56102b036600461278d565b6105ca565b005b600054600154600160a01b90910460ff169060408051921515835260208301919091520161022a565b6102f36102ee3660046126c6565b61089c565b60405161022a959493929190612846565b61031569d3c21bcecceda100000081565b60405190815260200161022a565b6102b56109e3565b6102196103393660046126c6565b6007602052600090815260409020600181015460029091015482565b6103156301e1338081565b61031561012c81565b61037c61037736600461288b565b610ab3565b60405161022a91906128fe565b6103156201518081565b6102b56103a13660046126c6565b610b9c565b6102b5610ce1565b6000546001600160a01b031661024b565b6102b56103cd366004612913565b610dc0565b6103156112b5565b6103ed6103e83660046126c6565b6112c5565b60405161022a9190612935565b600a541515610292565b61046761041236600461288b565b6005602081905260009182526040909120805460018201546002830154600384015460048501549585015460069095015493956001600160a01b0390931694919390929160ff80821692610100909204169088565b604080519889526001600160a01b0390971660208901529587019490945260608601929092526080850152151560a0840152151560c083015260e08201526101000161022a565b6103156104bc366004612997565b6114ba565b61031560015481565b6102b56114eb565b60005461029290600160a01b900460ff1681565b610315600381565b604080518082018252600080825260209182015281518083018352600a54808252600b5491830191825283519081529051918101919091520161022a565b6102b561053a36600461278d565b611657565b61055261054d3660046126c6565b6118a1565b60405161022a9291906129c1565b6102b561056e36600461288b565b611a84565b6102b5611f00565b610315601481565b6102b56105913660046126c6565b612396565b61024b6105a4366004612a4f565b80516020818301810180516009825292820191909301209152546001600160a01b031681565b816003815110156106175760405162461bcd60e51b8152602060048201526012602482015271155cd95c9b985b59481d1bdbc81cda1bdc9d60721b60448201526064015b60405180910390fd5b60208151111561065d5760405162461bcd60e51b8152602060048201526011602482015270557365726e616d6520746f6f206c6f6e6760781b604482015260640161060e565b60006001600160a01b03166009826040516106789190612a8c565b908152604051908190036020019020546001600160a01b0316146106d75760405162461bcd60e51b81526020600482015260166024820152752ab9b2b93730b6b29030b63932b0b23c903a30b5b2b760511b604482015260640161060e565b3360009081526008602052604090206002015460ff161561073a5760405162461bcd60e51b815260206004820152601760248201527f5573657220616c72656164792072656769737465726564000000000000000000604482015260640161060e565b6040805160a081018252848152426020808301829052600183850152606083019190915260808201859052336000908152600890915291909120815182919081906107859082612b2a565b5060208201516001820155604082015160028201805460ff191691151591909117905560608201516003820155608082015160048201906107c69082612b2a565b50905050336009856040516107db9190612a8c565b908152604080516020928190038301812080546001600160a01b0319166001600160a01b03959095169490941790935560006060840181815260808501835284528284018190528382018190523381526007835220825180519192610845928492909101906125a4565b50602082015160018201556040918201516002909101555133907f89105a1c6a3c2fbd471255c66a31ccab604af5697f67d7e2e9a0028c5e4dbd919061088e9087904290612be9565b60405180910390a250505050565b6008602052600090815260409020805481906108b790612aa8565b80601f01602080910402602001604051908101604052809291908181526020018280546108e390612aa8565b80156109305780601f1061090557610100808354040283529160200191610930565b820191906000526020600020905b81548152906001019060200180831161091357829003601f168201915b5050506001840154600285015460038601546004870180549697939660ff90931695509093509061096090612aa8565b80601f016020809104026020016040519081016040528092919081815260200182805461098c90612aa8565b80156109d95780601f106109ae576101008083540402835291602001916109d9565b820191906000526020600020905b8154815290600101906020018083116109bc57829003601f168201915b5050505050905085565b336109f66000546001600160a01b031690565b6001600160a01b031614610a1c5760405162461bcd60e51b815260040161060e90612c0b565b600054600160a01b900460ff16610a6e5760405162461bcd60e51b815260206004820152601660248201527510dbdb9d1c9858dd081a5cc81b9bdd081c185d5cd95960521b604482015260640161060e565b6000805460ff60a01b1916905560405142815233907f107553d8191d85b405879cf752997865edd48d94e20bda4dd27223c94b31a7cc906020015b60405180910390a2565b610abb6125ef565b60008281526005602052604090206001015482906001600160a01b0316610b1a5760405162461bcd60e51b8152602060048201526013602482015272131bd8dac8191bd95cc81b9bdd08195e1a5cdd606a1b604482015260640161060e565b600083815260056020818152604092839020835161010080820186528254825260018301546001600160a01b03169382019390935260028201549481019490945260038101546060850152600481015460808501529182015460ff808216151560a086015291900416151560c08301526006015460e082015291505b50919050565b33610baf6000546001600160a01b031690565b6001600160a01b031614610bd55760405162461bcd60e51b815260040161060e90612c0b565b6004546001600160a01b03610100909104811690821603610c2d5760405162461bcd60e51b815260206004820152601260248201527153616d6520746f6b656e206164647265737360701b604482015260640161060e565b600b5415610c875760405162461bcd60e51b815260206004820152602160248201527f43616e6e6f742075706461746520776974682061637469766520736176696e676044820152607360f81b606482015260840161060e565b600480546001600160a01b03838116610100818102610100600160a81b031985161790945560405193909204169182907f0b1186973f810894b87ab0bfbee422fddcaad21b46dc705a561451bbb6bac11790600090a35050565b33610cf46000546001600160a01b031690565b6001600160a01b031614610d1a5760405162461bcd60e51b815260040161060e90612c0b565b600054600160a01b900460ff1615610d745760405162461bcd60e51b815260206004820152601a60248201527f436f6e747261637420697320616c726561647920706175736564000000000000604482015260640161060e565b6000805460ff60a01b1916600160a01b17905542600181905560405133917f80170b5fcdd2bf1e0660ef4b8851f86685f64d41b1a19de1471947ece8725aac91610aa991815260200190565b60045460ff1615610de35760405162461bcd60e51b815260040161060e90612c40565b6004805460ff19166001179055600054600160a01b900460ff1615610e1a5760405162461bcd60e51b815260040161060e90612c77565b3360009081526008602052604090206002015460ff16610e4c5760405162461bcd60e51b815260040161060e90612ca3565b33600081815260066020526040902054601411610eab5760405162461bcd60e51b815260206004820152601760248201527f546f6f206d616e79206c6f636b7320666f722075736572000000000000000000604482015260640161060e565b60008211610efb5760405162461bcd60e51b815260206004820152601d60248201527f416d6f756e74206d7573742062652067726561746572207468616e2030000000604482015260640161060e565b69d3c21bcecceda1000000821115610f555760405162461bcd60e51b815260206004820152601c60248201527f416d6f756e742065786365656473206d6178696d756d206c696d697400000000604482015260640161060e565b620151808310158015610f6c57506301e133808311155b610fb05760405162461bcd60e51b815260206004820152601560248201527424b73b30b634b2103637b1b590323ab930ba34b7b760591b604482015260640161060e565b600454610fcd9061010090046001600160a01b0316333085612440565b600254600061012c610fdf8642612ce6565b610fe99190612ce6565b90506000604051806101000160405280848152602001336001600160a01b031681526020018681526020014281526020018381526020016001151581526020016000151581526020016000815250905080600560008581526020019081526020016000206000820151816000015560208201518160010160006101000a8154816001600160a01b0302191690836001600160a01b0316021790555060408201518160020155606082015181600301556080820151816004015560a08201518160050160006101000a81548160ff02191690831515021790555060c08201518160050160016101000a81548160ff02191690831515021790555060e0820151816006015590505060066000336001600160a01b03166001600160a01b03168152602001908152602001600020839080600181540180825580915050600190039060005260206000200160009091909190915055600060076000336001600160a01b03166001600160a01b03168152602001908152602001600020905080600001849080600181540180825580915050600190039060005260206000200160009091909190915055858160010160008282546111a39190612ce6565b90915550506002810180549060006111ba83612cf9565b9091555050600280549060006111cf83612cf9565b9091555050600380549060006111e483612cf9565b919050555085600a60010160008282546111fe9190612ce6565b90915550503360008181526008602090815260409182902042600390910181905582518a81529182015290810185905285907fe27d25eeaa9da90309cf1525d06f5618d04c5120b6904fc51e2117b0b482ffc29060600160405180910390a3600a54600b546040517fb1309c556abab8c6c8f6e211af9a3924734ad4adfe7d13a059f48280cb1e689e9261129a92908252602082015260400190565b60405180910390a150506004805460ff191690555050505050565b60006112c060035490565b905090565b6112f96040518060a00160405280606081526020016000815260200160001515815260200160008152602001606081525090565b6001600160a01b0382166113465760405162461bcd60e51b8152602060048201526014602482015273496e76616c69642075736572206164647265737360601b604482015260640161060e565b6001600160a01b03821660009081526008602052604090819020815160a0810190925280548290829061137890612aa8565b80601f01602080910402602001604051908101604052809291908181526020018280546113a490612aa8565b80156113f15780601f106113c6576101008083540402835291602001916113f1565b820191906000526020600020905b8154815290600101906020018083116113d457829003601f168201915b505050918352505060018201546020820152600282015460ff16151560408201526003820154606082015260048201805460809092019161143190612aa8565b80601f016020809104026020016040519081016040528092919081815260200182805461145d90612aa8565b80156114aa5780601f1061147f576101008083540402835291602001916114aa565b820191906000526020600020905b81548152906001019060200180831161148d57829003601f168201915b5050505050815250509050919050565b600660205281600052604060002081815481106114d657600080fd5b90600052602060002001600091509150505481565b60045460ff161561150e5760405162461bcd60e51b815260040161060e90612c40565b6004805460ff19166001179055600054600160a01b900460ff16156115455760405162461bcd60e51b815260040161060e90612c77565b336115586000546001600160a01b031690565b6001600160a01b03161461157e5760405162461bcd60e51b815260040161060e90612c0b565b600a546115cd5760405162461bcd60e51b815260206004820152601860248201527f4e6f2070656e616c7469657320746f2077697468647261770000000000000000604482015260640161060e565b600a805460009091556116036115eb6000546001600160a01b031690565b60045461010090046001600160a01b031690836124ad565b600054604080518381524260208201526001600160a01b03909216917f09c0b6a3b575008a353ca3f212102dc675a67923b47c08d012d908bbee7b6fd9910160405180910390a2506004805460ff19169055565b3360009081526008602052604090206002015460ff166116895760405162461bcd60e51b815260040161060e90612ca3565b3360009081526008602090815260409182902084519185019190912091519091906116b5908390612d84565b6040518091039020146118435760006001600160a01b03166009846040516116dd9190612a8c565b908152604051908190036020019020546001600160a01b03161461173c5760405162461bcd60e51b81526020600482015260166024820152752ab9b2b93730b6b29030b63932b0b23c903a30b5b2b760511b604482015260640161060e565b6003835110156117835760405162461bcd60e51b8152602060048201526012602482015271155cd95c9b985b59481d1bdbc81cda1bdc9d60721b604482015260640161060e565b6020835111156117c95760405162461bcd60e51b8152602060048201526011602482015270557365726e616d6520746f6f206c6f6e6760781b604482015260640161060e565b6040516009906117da908390612d84565b90815260405190819003602001812080546001600160a01b03191690553390600990611807908690612a8c565b90815260405190819003602001902080546001600160a01b03929092166001600160a01b0319909216919091179055806118418482612b2a565b505b81511561185a57600481016118588382612b2a565b505b426003820181905560405133917fd9e53c4099d040960601cca2c1211ebed43a314a5679deec705ddb2c783f818a91611894918791612be9565b60405180910390a2505050565b6060806001600160a01b0383166118f15760405162461bcd60e51b8152602060048201526014602482015273496e76616c69642075736572206164647265737360601b604482015260640161060e565b6001600160a01b0383166000908152600660209081526040918290208054835181840281018401909452808452909183018282801561194f57602002820191906000526020600020905b81548152602001906001019080831161193b575b50505050509150815167ffffffffffffffff811115611970576119706126e8565b6040519080825280602002602001820160405280156119a957816020015b6119966125ef565b81526020019060019003908161198e5790505b50905060005b8251811015611a7e57600560008483815181106119ce576119ce612d90565b6020908102919091018101518252818101929092526040908101600020815161010080820184528254825260018301546001600160a01b0316948201949094526002820154928101929092526003810154606083015260048101546080830152600581015460ff808216151560a0850152939004909216151560c082015260069091015460e08201528251839083908110611a6b57611a6b612d90565b60209081029190910101526001016119af565b50915091565b60045460ff1615611aa75760405162461bcd60e51b815260040161060e90612c40565b6004805460ff19166001179055600054600160a01b900460ff1615611ade5760405162461bcd60e51b815260040161060e90612c77565b3360009081526008602052604090206002015460ff16611b105760405162461bcd60e51b815260040161060e90612ca3565b60008181526005602052604090206001015481906001600160a01b03163314611b705760405162461bcd60e51b81526020600482015260126024820152712737ba103a3432903637b1b59037bbb732b960711b604482015260640161060e565b60008281526005602052604090206001015482906001600160a01b0316611bcf5760405162461bcd60e51b8152602060048201526013602482015272131bd8dac8191bd95cc81b9bdd08195e1a5cdd606a1b604482015260640161060e565b60008381526005602081905260409091200154839060ff16611c285760405162461bcd60e51b81526020600482015260126024820152714c6f636b206973206e6f742061637469766560701b604482015260640161060e565b600084815260056020819052604090912090810154610100900460ff1615611c865760405162461bcd60e51b815260206004820152601160248201527020b63932b0b23c903bb4ba34323930bbb760791b604482015260640161060e565b600061012c8260040154611c9a9190612da6565b42109050600080836002015490508215611da457606460038560020154611cc19190612db9565b611ccb9190612dd0565b915083600201548210611d205760405162461bcd60e51b815260206004820152601960248201527f50656e616c74792063616c63756c6174696f6e206572726f7200000000000000604482015260640161060e565b60008211611d705760405162461bcd60e51b815260206004820152601e60248201527f50656e616c7479206d7573742062652067726561746572207468616e20300000604482015260640161060e565b818460020154611d809190612da6565b905081600a6000016000828254611d979190612ce6565b9091555050600684018290555b60058401805461ffff1916610100179055336000908152600760205260408120600286015460018201805492939192909190611de1908490612da6565b9091555050600281018054906000611df883612df2565b909155505060038054906000611e0d83612df2565b90915550506002850154600b8054600090611e29908490612da6565b909155505033600081815260086020526040902042600390910155600454611e61916101009091046001600160a01b031690846124ad565b604080518381526020810185905285151581830152905133918b917f54b63ef7702111ea26c7ad1623aef70ad7571af1e4a7207a647110f4a47ee7d89181900360600190a3600a54600b546040517fb1309c556abab8c6c8f6e211af9a3924734ad4adfe7d13a059f48280cb1e689e92611ee392908252602082015260400190565b60405180910390a150506004805460ff1916905550505050505050565b3360009081526008602052604090206002015460ff16611f325760405162461bcd60e51b815260040161060e90612ca3565b60045460ff1615611f555760405162461bcd60e51b815260040161060e90612c40565b6004805460ff19166001179055336000908152600860205260409020600281015460ff16611fc55760405162461bcd60e51b815260206004820152601b60248201527f4163636f756e7420616c72656164792064656163746976617465640000000000604482015260640161060e565b3360009081526007602090815260408083206001810154600282015460068552838620805485518188028101880190965280865293969592949193869383018282801561203157602002820191906000526020600020905b81548152602001906001019080831161201d575b5050505050905060008267ffffffffffffffff811115612053576120536126e8565b60405190808252806020026020018201604052801561207c578160200160208202803683370190505b5090506000805b83518110156121805760008482815181106120a0576120a0612d90565b6020908102919091018101516000818152600592839052604090209182015490925060ff1680156120db57506005810154610100900460ff16155b1561217657600061012c82600401546120f49190612da6565b42101561211b5760646003836002015461210e9190612db9565b6121189190612dd0565b90505b600282015461212a818c612ce6565b60058401805461ffff1916610100179055600684018390558751909b50849088908890811061215b5761215b612d90565b60209081029190910101528561217081612cf9565b96505050505b5050600101612083565b5084600a60010160008282546121969190612da6565b9250508190555083600360008282546121af9190612da6565b9091555050875460009089906121c490612aa8565b80601f01602080910402602001604051908101604052809291908181526020018280546121f090612aa8565b801561223d5780601f106122125761010080835404028352916020019161223d565b820191906000526020600020905b81548152906001019060200180831161222057829003601f168201915b50503360009081526008602052604081209495509250612261915083905082612641565b60006001830181905560028301805460ff191690556003830181905561228b906004840190612641565b505060098160405161229d9190612a8c565b908152604080516020928190038301902080546001600160a01b0319169055336000908152600690925281206122d29161267b565b336000908152600760205260408120906122ec828261267b565b50600060018201819055600290910155861561231e5760045461231e9061010090046001600160a01b031633896124ad565b604080514281526020810189905233917f18d35dd2e877048b2bee35f3f5eabee33d1cd8e7346b4ae71b7794619ae7e159910160405180910390a2600a54600b546040517fb1309c556abab8c6c8f6e211af9a3924734ad4adfe7d13a059f48280cb1e689e92611ee392908252602082015260400190565b336123a96000546001600160a01b031690565b6001600160a01b0316146123cf5760405162461bcd60e51b815260040161060e90612c0b565b6001600160a01b0381166124345760405162461bcd60e51b815260206004820152602660248201527f4f776e61626c653a206e6577206f776e657220697320746865207a65726f206160448201526564647265737360d01b606482015260840161060e565b61243d816124e3565b50565b6040516001600160a01b0384811660248301528381166044830152606482018390526124a79186918216906323b872dd906084015b604051602081830303815290604052915060e01b6020820180516001600160e01b038381831617835250505050612533565b50505050565b6040516001600160a01b038381166024830152604482018390526124de91859182169063a9059cbb90606401612475565b505050565b600080546001600160a01b038381166001600160a01b0319831681178455604051919092169283917f8be0079c531659141344cd1fd0a4f28419497f9722a3daafe3b4186f6b6457e09190a35050565b600080602060008451602086016000885af180612556576040513d6000823e3d81fd5b50506000513d9150811561256e57806001141561257b565b6001600160a01b0384163b155b156124a757604051635274afe760e01b81526001600160a01b038516600482015260240161060e565b8280548282559060005260206000209081019282156125df579160200282015b828111156125df5782518255916020019190600101906125c4565b506125eb929150612695565b5090565b6040518061010001604052806000815260200160006001600160a01b03168152602001600081526020016000815260200160008152602001600015158152602001600015158152602001600081525090565b50805461264d90612aa8565b6000825580601f1061265d575050565b601f01602090049060005260206000209081019061243d9190612695565b508054600082559060005260206000209081019061243d91905b5b808211156125eb5760008155600101612696565b80356001600160a01b03811681146126c157600080fd5b919050565b6000602082840312156126d857600080fd5b6126e1826126aa565b9392505050565b634e487b7160e01b600052604160045260246000fd5b600082601f83011261270f57600080fd5b813567ffffffffffffffff811115612729576127296126e8565b604051601f8201601f19908116603f0116810167ffffffffffffffff81118282101715612758576127586126e8565b60405281815283820160200185101561277057600080fd5b816020850160208301376000918101602001919091529392505050565b600080604083850312156127a057600080fd5b823567ffffffffffffffff8111156127b757600080fd5b6127c3858286016126fe565b925050602083013567ffffffffffffffff8111156127e057600080fd5b6127ec858286016126fe565b9150509250929050565b60005b838110156128115781810151838201526020016127f9565b50506000910152565b600081518084526128328160208601602086016127f6565b601f01601f19169290920160200192915050565b60a08152600061285960a083018861281a565b8660208401528515156040840152846060840152828103608084015261287f818561281a565b98975050505050505050565b60006020828403121561289d57600080fd5b5035919050565b8051825260018060a01b03602082015116602083015260408101516040830152606081015160608301526080810151608083015260a0810151151560a083015260c0810151151560c083015260e081015160e08301525050565b610100810161290d82846128a4565b92915050565b6000806040838503121561292657600080fd5b50508035926020909101359150565b602081526000825160a0602084015261295160c084018261281a565b905060208401516040840152604084015115156060840152606084015160808401526080840151601f198483030160a085015261298e828261281a565b95945050505050565b600080604083850312156129aa57600080fd5b6129b3836126aa565b946020939093013593505050565b6040808252835190820181905260009060208501906060840190835b818110156129fb5783518352602093840193909201916001016129dd565b50508381036020808601919091528551808352918101925085019060005b81811015612a4357612a2c8484516128a4565b610100939093019260209290920191600101612a19565b50919695505050505050565b600060208284031215612a6157600080fd5b813567ffffffffffffffff811115612a7857600080fd5b612a84848285016126fe565b949350505050565b60008251612a9e8184602087016127f6565b9190910192915050565b600181811c90821680612abc57607f821691505b602082108103610b9657634e487b7160e01b600052602260045260246000fd5b601f8211156124de57806000526020600020601f840160051c81016020851015612b035750805b601f840160051c820191505b81811015612b235760008155600101612b0f565b5050505050565b815167ffffffffffffffff811115612b4457612b446126e8565b612b5881612b528454612aa8565b84612adc565b6020601f821160018114612b8c5760008315612b745750848201515b600019600385901b1c1916600184901b178455612b23565b600084815260208120601f198516915b82811015612bbc5787850151825560209485019460019092019101612b9c565b5084821015612bda5786840151600019600387901b60f8161c191681555b50505050600190811b01905550565b604081526000612bfc604083018561281a565b90508260208301529392505050565b6020808252818101527f4f776e61626c653a2063616c6c6572206973206e6f7420746865206f776e6572604082015260600190565b6020808252601f908201527f5265656e7472616e637947756172643a207265656e7472616e742063616c6c00604082015260600190565b60208082526012908201527110dbdb9d1c9858dd081a5cc81c185d5cd95960721b604082015260600190565b602080825260139082015272155cd95c881b9bdd081c9959da5cdd195c9959606a1b604082015260600190565b634e487b7160e01b600052601160045260246000fd5b8082018082111561290d5761290d612cd0565b600060018201612d0b57612d0b612cd0565b5060010190565b60008154612d1f81612aa8565b600182168015612d365760018114612d4b57612d7b565b60ff1983168652811515820286019350612d7b565b84600052602060002060005b83811015612d7357815488820152600190910190602001612d57565b505081860193505b50505092915050565b60006126e18284612d12565b634e487b7160e01b600052603260045260246000fd5b8181038181111561290d5761290d612cd0565b808202811582820484141761290d5761290d612cd0565b600082612ded57634e487b7160e01b600052601260045260246000fd5b500490565b600081612e0157612e01612cd0565b50600019019056fea2646970667358221220bd97de267e2b1c6a7a9953231922223978c3596d3334d65985cc886d90f3b0bc64736f6c634300081c0033",
  "linkReferences": {},
  "deployedLinkReferences": {}
}