{
  "_format": "hh-sol-artifact-1",
  "contractName": "SafeLock",
  "sourceName": "contracts/SafeLock.sol",
  "abi": [
    {
      "inputs": [
        {
          "internalType": "address",
          "name": "_cUSDToken",
          "type": "address"
        },
        {
          "internalType": "address",
          "name": "_USDTToken",
          "type": "address"
        },
        {
          "internalType": "address",
          "name": "_CGHSToken",
          "type": "address"
        },
        {
          "internalType": "address",
          "name": "_CNGNToken",
          "type": "address"
        },
        {
          "internalType": "address",
          "name": "_CKESToken",
          "type": "address"
        },
        {
          "internalType": "address",
          "name": "initialOwner",
          "type": "address"
        }
      ],
      "stateMutability": "nonpayable",
      "type": "constructor"
    },
    {
      "inputs": [
        {
          "internalType": "address",
          "name": "token",
          "type": "address"
        }
      ],
      "name": "SafeERC20FailedOperation",
      "type": "error"
    },
    {
      "anonymous": false,
      "inputs": [
        {
          "indexed": true,
          "internalType": "address",
          "name": "pauser",
          "type": "address"
        },
        {
          "indexed": false,
          "internalType": "uint256",
          "name": "timestamp",
          "type": "uint256"
        }
      ],
      "name": "ContractPaused",
      "type": "event"
    },
    {
      "anonymous": false,
      "inputs": [
        {
          "indexed": true,
          "internalType": "address",
          "name": "unpauser",
          "type": "address"
        },
        {
          "indexed": false,
          "internalType": "uint256",
          "name": "timestamp",
          "type": "uint256"
        }
      ],
      "name": "ContractUnpaused",
      "type": "event"
    },
    {
      "anonymous": false,
      "inputs": [
        {
          "indexed": true,
          "internalType": "address",
          "name": "previousOwner",
          "type": "address"
        },
        {
          "indexed": true,
          "internalType": "address",
          "name": "newOwner",
          "type": "address"
        }
      ],
      "name": "OwnershipTransferred",
      "type": "event"
    },
    {
      "anonymous": false,
      "inputs": [
        {
          "indexed": true,
          "internalType": "address",
          "name": "owner",
          "type": "address"
        },
        {
          "indexed": true,
          "internalType": "address",
          "name": "token",
          "type": "address"
        },
        {
          "indexed": false,
          "internalType": "uint256",
          "name": "amount",
          "type": "uint256"
        },
        {
          "indexed": false,
          "internalType": "uint256",
          "name": "timestamp",
          "type": "uint256"
        }
      ],
      "name": "PenaltiesWithdrawn",
      "type": "event"
    },
    {
      "anonymous": false,
      "inputs": [
        {
          "indexed": false,
          "internalType": "uint256",
          "name": "totalPenalties",
          "type": "uint256"
        },
        {
          "indexed": false,
          "internalType": "uint256",
          "name": "totalActiveSavings",
          "type": "uint256"
        }
      ],
      "name": "PenaltyPoolUpdated",
      "type": "event"
    },
    {
      "anonymous": false,
      "inputs": [
        {
          "indexed": true,
          "internalType": "uint256",
          "name": "lockId",
          "type": "uint256"
        },
        {
          "indexed": true,
          "internalType": "address",
          "name": "owner",
          "type": "address"
        },
        {
          "indexed": false,
          "internalType": "uint256",
          "name": "amount",
          "type": "uint256"
        },
        {
          "indexed": false,
          "internalType": "uint256",
          "name": "lockTime",
          "type": "uint256"
        },
        {
          "indexed": false,
          "internalType": "uint256",
          "name": "unlockTime",
          "type": "uint256"
        },
        {
          "indexed": false,
          "internalType": "string",
          "name": "title",
          "type": "string"
        }
      ],
      "name": "SavingsLocked",
      "type": "event"
    },
    {
      "anonymous": false,
      "inputs": [
        {
          "indexed": true,
          "internalType": "uint256",
          "name": "lockId",
          "type": "uint256"
        },
        {
          "indexed": true,
          "internalType": "address",
          "name": "owner",
          "type": "address"
        },
        {
          "indexed": false,
          "internalType": "uint256",
          "name": "amount",
          "type": "uint256"
        },
        {
          "indexed": false,
          "internalType": "uint256",
          "name": "penaltyAmount",
          "type": "uint256"
        },
        {
          "indexed": false,
          "internalType": "bool",
          "name": "isEarlyWithdrawal",
          "type": "bool"
        }
      ],
      "name": "SavingsWithdrawn",
      "type": "event"
    },
    {
      "anonymous": false,
      "inputs": [
        {
          "indexed": true,
          "internalType": "address",
          "name": "token",
          "type": "address"
        },
        {
          "indexed": false,
          "internalType": "uint256",
          "name": "oldMax",
          "type": "uint256"
        },
        {
          "indexed": false,
          "internalType": "uint256",
          "name": "newMax",
          "type": "uint256"
        }
      ],
      "name": "TokenMaxUpdated",
      "type": "event"
    },
    {
      "anonymous": false,
      "inputs": [
        {
          "indexed": true,
          "internalType": "address",
          "name": "oldToken",
          "type": "address"
        },
        {
          "indexed": true,
          "internalType": "address",
          "name": "newToken",
          "type": "address"
        }
      ],
      "name": "TokenUpdated",
      "type": "event"
    },
    {
      "anonymous": false,
      "inputs": [
        {
          "indexed": true,
          "internalType": "address",
          "name": "token",
          "type": "address"
        }
      ],
      "name": "TokenWhitelistRemoved",
      "type": "event"
    },
    {
      "anonymous": false,
      "inputs": [
        {
          "indexed": true,
          "internalType": "address",
          "name": "token",
          "type": "address"
        },
        {
          "indexed": false,
          "internalType": "uint256",
          "name": "maxLockAmount",
          "type": "uint256"
        }
      ],
      "name": "TokenWhitelisted",
      "type": "event"
    },
    {
      "anonymous": false,
      "inputs": [
        {
          "indexed": true,
          "internalType": "address",
          "name": "user",
          "type": "address"
        },
        {
          "indexed": false,
          "internalType": "uint256",
          "name": "deactivationDate",
          "type": "uint256"
        },
        {
          "indexed": false,
          "internalType": "uint256",
          "name": "totalRefunded",
          "type": "uint256"
        }
      ],
      "name": "UserDeactivated",
      "type": "event"
    },
    {
      "anonymous": false,
      "inputs": [
        {
          "indexed": true,
          "internalType": "address",
          "name": "user",
          "type": "address"
        },
        {
          "indexed": false,
          "internalType": "string",
          "name": "username",
          "type": "string"
        },
        {
          "indexed": false,
          "internalType": "uint256",
          "name": "timestamp",
          "type": "uint256"
        }
      ],
      "name": "UserProfileUpdated",
      "type": "event"
    },
    {
      "anonymous": false,
      "inputs": [
        {
          "indexed": true,
          "internalType": "address",
          "name": "user",
          "type": "address"
        },
        {
          "indexed": false,
          "internalType": "string",
          "name": "username",
          "type": "string"
        },
        {
          "indexed": false,
          "internalType": "uint256",
          "name": "registrationDate",
          "type": "uint256"
        }
      ],
      "name": "UserRegistered",
      "type": "event"
    },
    {
      "inputs": [],
      "name": "CGHSToken",
      "outputs": [
        {
          "internalType": "contract IERC20",
          "name": "",
          "type": "address"
        }
      ],
      "stateMutability": "view",
      "type": "function"
    },
    {
      "inputs": [],
      "name": "CKESToken",
      "outputs": [
        {
          "internalType": "contract IERC20",
          "name": "",
          "type": "address"
        }
      ],
      "stateMutability": "view",
      "type": "function"
    },
    {
      "inputs": [],
      "name": "CNGNToken",
      "outputs": [
        {
          "internalType": "contract IERC20",
          "name": "",
          "type": "address"
        }
      ],
      "stateMutability": "view",
      "type": "function"
    },
    {
      "inputs": [],
      "name": "EARLY_WITHDRAWAL_PENALTY_BASIS_POINTS",
      "outputs": [
        {
          "internalType": "uint256",
          "name": "",
          "type": "uint256"
        }
      ],
      "stateMutability": "view",
      "type": "function"
    },
    {
      "inputs": [],
      "name": "MAX_LOCK_AMOUNT",
      "outputs": [
        {
          "internalType": "uint256",
          "name": "",
          "type": "uint256"
        }
      ],
      "stateMutability": "view",
      "type": "function"
    },
    {
      "inputs": [],
      "name": "MAX_LOCK_DURATION",
      "outputs": [
        {
          "internalType": "uint256",
          "name": "",
          "type": "uint256"
        }
      ],
      "stateMutability": "view",
      "type": "function"
    },
    {
      "inputs": [],
      "name": "MAX_LOCK_TITLE_LENGTH",
      "outputs": [
        {
          "internalType": "uint256",
          "name": "",
          "type": "uint256"
        }
      ],
      "stateMutability": "view",
      "type": "function"
    },
    {
      "inputs": [],
      "name": "MAX_USER_LOCKS",
      "outputs": [
        {
          "internalType": "uint256",
          "name": "",
          "type": "uint256"
        }
      ],
      "stateMutability": "view",
      "type": "function"
    },
    {
      "inputs": [],
      "name": "MIN_LOCK_DURATION",
      "outputs": [
        {
          "internalType": "uint256",
          "name": "",
          "type": "uint256"
        }
      ],
      "stateMutability": "view",
      "type": "function"
    },
    {
      "inputs": [],
      "name": "PENALTY_DENOMINATOR",
      "outputs": [
        {
          "internalType": "uint256",
          "name": "",
          "type": "uint256"
        }
      ],
      "stateMutability": "view",
      "type": "function"
    },
    {
      "inputs": [],
      "name": "TIME_BUFFER",
      "outputs": [
        {
          "internalType": "uint256",
          "name": "",
          "type": "uint256"
        }
      ],
      "stateMutability": "view",
      "type": "function"
    },
    {
      "inputs": [],
      "name": "USDTToken",
      "outputs": [
        {
          "internalType": "contract IERC20",
          "name": "",
          "type": "address"
        }
      ],
      "stateMutability": "view",
      "type": "function"
    },
    {
      "inputs": [
        {
          "internalType": "address",
          "name": "",
          "type": "address"
        }
      ],
      "name": "activeSavingsByToken",
      "outputs": [
        {
          "internalType": "uint256",
          "name": "",
          "type": "uint256"
        }
      ],
      "stateMutability": "view",
      "type": "function"
    },
    {
      "inputs": [
        {
          "internalType": "address",
          "name": "token",
          "type": "address"
        },
        {
          "internalType": "uint256",
          "name": "maxLockAmount",
          "type": "uint256"
        }
      ],
      "name": "addWhitelistedToken",
      "outputs": [],
      "stateMutability": "nonpayable",
      "type": "function"
    },
    {
      "inputs": [],
      "name": "cUSDToken",
      "outputs": [
        {
          "internalType": "contract IERC20",
          "name": "",
          "type": "address"
        }
      ],
      "stateMutability": "view",
      "type": "function"
    },
    {
      "inputs": [],
      "name": "canWithdrawPenalties",
      "outputs": [
        {
          "internalType": "bool",
          "name": "",
          "type": "bool"
        }
      ],
      "stateMutability": "view",
      "type": "function"
    },
    {
      "inputs": [
        {
          "internalType": "uint256",
          "name": "lockDuration",
          "type": "uint256"
        },
        {
          "internalType": "uint256",
          "name": "amount",
          "type": "uint256"
        },
        {
          "internalType": "string",
          "name": "title",
          "type": "string"
        },
        {
          "internalType": "address",
          "name": "tokenAddress",
          "type": "address"
        }
      ],
      "name": "createSavingsLock",
      "outputs": [],
      "stateMutability": "nonpayable",
      "type": "function"
    },
    {
      "inputs": [],
      "name": "deactivateAccount",
      "outputs": [],
      "stateMutability": "nonpayable",
      "type": "function"
    },
    {
      "inputs": [],
      "name": "getActiveSavingsCount",
      "outputs": [
        {
          "internalType": "uint256",
          "name": "",
          "type": "uint256"
        }
      ],
      "stateMutability": "view",
      "type": "function"
    },
    {
      "inputs": [
        {
          "internalType": "uint256",
          "name": "lockId",
          "type": "uint256"
        }
      ],
      "name": "getLockDetails",
      "outputs": [
        {
          "components": [
            {
              "internalType": "uint256",
              "name": "id",
              "type": "uint256"
            },
            {
              "internalType": "address",
              "name": "owner",
              "type": "address"
            },
            {
              "internalType": "uint256",
              "name": "amount",
              "type": "uint256"
            },
            {
              "internalType": "uint256",
              "name": "lockTime",
              "type": "uint256"
            },
            {
              "internalType": "uint256",
              "name": "unlockTime",
              "type": "uint256"
            },
            {
              "internalType": "bool",
              "name": "isActive",
              "type": "bool"
            },
            {
              "internalType": "bool",
              "name": "isWithdrawn",
              "type": "bool"
            },
            {
              "internalType": "uint256",
              "name": "penaltyAmount",
              "type": "uint256"
            },
            {
              "internalType": "string",
              "name": "title",
              "type": "string"
            },
            {
              "internalType": "address",
              "name": "token",
              "type": "address"
            }
          ],
          "internalType": "struct SafeLock.SavingsLock",
          "name": "",
          "type": "tuple"
        }
      ],
      "stateMutability": "view",
      "type": "function"
    },
    {
      "inputs": [],
      "name": "getPauseStatus",
      "outputs": [
        {
          "internalType": "bool",
          "name": "generalPaused",
          "type": "bool"
        },
        {
          "internalType": "uint256",
          "name": "generalPauseTime",
          "type": "uint256"
        }
      ],
      "stateMutability": "view",
      "type": "function"
    },
    {
      "inputs": [],
      "name": "getPenaltyPool",
      "outputs": [
        {
          "components": [
            {
              "internalType": "uint256",
              "name": "totalPenalties",
              "type": "uint256"
            },
            {
              "internalType": "uint256",
              "name": "totalActiveSavings",
              "type": "uint256"
            }
          ],
          "internalType": "struct SafeLock.PenaltyPool",
          "name": "",
          "type": "tuple"
        }
      ],
      "stateMutability": "view",
      "type": "function"
    },
    {
      "inputs": [
        {
          "internalType": "address",
          "name": "user",
          "type": "address"
        }
      ],
      "name": "getUserLocksWithDetails",
      "outputs": [
        {
          "internalType": "uint256[]",
          "name": "lockIds",
          "type": "uint256[]"
        },
        {
          "components": [
            {
              "internalType": "uint256",
              "name": "id",
              "type": "uint256"
            },
            {
              "internalType": "address",
              "name": "owner",
              "type": "address"
            },
            {
              "internalType": "uint256",
              "name": "amount",
              "type": "uint256"
            },
            {
              "internalType": "uint256",
              "name": "lockTime",
              "type": "uint256"
            },
            {
              "internalType": "uint256",
              "name": "unlockTime",
              "type": "uint256"
            },
            {
              "internalType": "bool",
              "name": "isActive",
              "type": "bool"
            },
            {
              "internalType": "bool",
              "name": "isWithdrawn",
              "type": "bool"
            },
            {
              "internalType": "uint256",
              "name": "penaltyAmount",
              "type": "uint256"
            },
            {
              "internalType": "string",
              "name": "title",
              "type": "string"
            },
            {
              "internalType": "address",
              "name": "token",
              "type": "address"
            }
          ],
          "internalType": "struct SafeLock.SavingsLock[]",
          "name": "locks",
          "type": "tuple[]"
        }
      ],
      "stateMutability": "view",
      "type": "function"
    },
    {
      "inputs": [
        {
          "internalType": "address",
          "name": "user",
          "type": "address"
        }
      ],
      "name": "getUserProfile",
      "outputs": [
        {
          "components": [
            {
              "internalType": "string",
              "name": "username",
              "type": "string"
            },
            {
              "internalType": "uint256",
              "name": "registrationDate",
              "type": "uint256"
            },
            {
              "internalType": "bool",
              "name": "isActive",
              "type": "bool"
            },
            {
              "internalType": "uint256",
              "name": "lastActivity",
              "type": "uint256"
            },
            {
              "internalType": "string",
              "name": "profileImageHash",
              "type": "string"
            }
          ],
          "internalType": "struct SafeLock.UserProfile",
          "name": "",
          "type": "tuple"
        }
      ],
      "stateMutability": "view",
      "type": "function"
    },
    {
      "inputs": [],
      "name": "isPaused",
      "outputs": [
        {
          "internalType": "bool",
          "name": "",
          "type": "bool"
        }
      ],
      "stateMutability": "view",
      "type": "function"
    },
    {
      "inputs": [
        {
          "internalType": "address",
          "name": "user",
          "type": "address"
        }
      ],
      "name": "isUserRegistered",
      "outputs": [
        {
          "internalType": "bool",
          "name": "",
          "type": "bool"
        }
      ],
      "stateMutability": "view",
      "type": "function"
    },
    {
      "inputs": [
        {
          "internalType": "string",
          "name": "username",
          "type": "string"
        }
      ],
      "name": "isUsernameAvailable",
      "outputs": [
        {
          "internalType": "bool",
          "name": "",
          "type": "bool"
        }
      ],
      "stateMutability": "view",
      "type": "function"
    },
    {
      "inputs": [
        {
          "internalType": "address",
          "name": "",
          "type": "address"
        }
      ],
      "name": "isWhitelistedToken",
      "outputs": [
        {
          "internalType": "bool",
          "name": "",
          "type": "bool"
        }
      ],
      "stateMutability": "view",
      "type": "function"
    },
    {
      "inputs": [
        {
          "internalType": "address",
          "name": "",
          "type": "address"
        }
      ],
      "name": "maxLockAmountByToken",
      "outputs": [
        {
          "internalType": "uint256",
          "name": "",
          "type": "uint256"
        }
      ],
      "stateMutability": "view",
      "type": "function"
    },
    {
      "inputs": [],
      "name": "owner",
      "outputs": [
        {
          "internalType": "address",
          "name": "",
          "type": "address"
        }
      ],
      "stateMutability": "view",
      "type": "function"
    },
    {
      "inputs": [],
      "name": "pause",
      "outputs": [],
      "stateMutability": "nonpayable",
      "type": "function"
    },
    {
      "inputs": [],
      "name": "pauseTimestamp",
      "outputs": [
        {
          "internalType": "uint256",
          "name": "",
          "type": "uint256"
        }
      ],
      "stateMutability": "view",
      "type": "function"
    },
    {
      "inputs": [
        {
          "internalType": "address",
          "name": "",
          "type": "address"
        }
      ],
      "name": "penaltiesByToken",
      "outputs": [
        {
          "internalType": "uint256",
          "name": "",
          "type": "uint256"
        }
      ],
      "stateMutability": "view",
      "type": "function"
    },
    {
      "inputs": [],
      "name": "penaltyPool",
      "outputs": [
        {
          "internalType": "uint256",
          "name": "totalPenalties",
          "type": "uint256"
        },
        {
          "internalType": "uint256",
          "name": "totalActiveSavings",
          "type": "uint256"
        }
      ],
      "stateMutability": "view",
      "type": "function"
    },
    {
      "inputs": [
        {
          "internalType": "string",
          "name": "username",
          "type": "string"
        },
        {
          "internalType": "string",
          "name": "profileImageHash",
          "type": "string"
        }
      ],
      "name": "registerUser",
      "outputs": [],
      "stateMutability": "nonpayable",
      "type": "function"
    },
    {
      "inputs": [
        {
          "internalType": "address",
          "name": "token",
          "type": "address"
        }
      ],
      "name": "removeWhitelistedToken",
      "outputs": [],
      "stateMutability": "nonpayable",
      "type": "function"
    },
    {
      "inputs": [
        {
          "internalType": "uint256",
          "name": "",
          "type": "uint256"
        }
      ],
      "name": "savingsLocks",
      "outputs": [
        {
          "internalType": "uint256",
          "name": "id",
          "type": "uint256"
        },
        {
          "internalType": "address",
          "name": "owner",
          "type": "address"
        },
        {
          "internalType": "uint256",
          "name": "amount",
          "type": "uint256"
        },
        {
          "internalType": "uint256",
          "name": "lockTime",
          "type": "uint256"
        },
        {
          "internalType": "uint256",
          "name": "unlockTime",
          "type": "uint256"
        },
        {
          "internalType": "bool",
          "name": "isActive",
          "type": "bool"
        },
        {
          "internalType": "bool",
          "name": "isWithdrawn",
          "type": "bool"
        },
        {
          "internalType": "uint256",
          "name": "penaltyAmount",
          "type": "uint256"
        },
        {
          "internalType": "string",
          "name": "title",
          "type": "string"
        },
        {
          "internalType": "address",
          "name": "token",
          "type": "address"
        }
      ],
      "stateMutability": "view",
      "type": "function"
    },
    {
      "inputs": [
        {
          "internalType": "address",
          "name": "newOwner",
          "type": "address"
        }
      ],
      "name": "transferOwnership",
      "outputs": [],
      "stateMutability": "nonpayable",
      "type": "function"
    },
    {
      "inputs": [],
      "name": "unpause",
      "outputs": [],
      "stateMutability": "nonpayable",
      "type": "function"
    },
    {
      "inputs": [
        {
          "internalType": "string",
          "name": "newUsername",
          "type": "string"
        },
        {
          "internalType": "string",
          "name": "newProfileImageHash",
          "type": "string"
        }
      ],
      "name": "updateProfile",
      "outputs": [],
      "stateMutability": "nonpayable",
      "type": "function"
    },
    {
      "inputs": [
        {
          "internalType": "address",
          "name": "newToken",
          "type": "address"
        }
      ],
      "name": "updateToken",
      "outputs": [],
      "stateMutability": "nonpayable",
      "type": "function"
    },
    {
      "inputs": [
        {
          "internalType": "address",
          "name": "token",
          "type": "address"
        },
        {
          "internalType": "uint256",
          "name": "newMax",
          "type": "uint256"
        }
      ],
      "name": "updateTokenMaxLock",
      "outputs": [],
      "stateMutability": "nonpayable",
      "type": "function"
    },
    {
      "inputs": [
        {
          "internalType": "address",
          "name": "",
          "type": "address"
        }
      ],
      "name": "userLockInfo",
      "outputs": [
        {
          "internalType": "uint256",
          "name": "totalActiveAmount",
          "type": "uint256"
        },
        {
          "internalType": "uint256",
          "name": "totalActiveLocks",
          "type": "uint256"
        }
      ],
      "stateMutability": "view",
      "type": "function"
    },
    {
      "inputs": [
        {
          "internalType": "address",
          "name": "",
          "type": "address"
        },
        {
          "internalType": "uint256",
          "name": "",
          "type": "uint256"
        }
      ],
      "name": "userLocks",
      "outputs": [
        {
          "internalType": "uint256",
          "name": "",
          "type": "uint256"
        }
      ],
      "stateMutability": "view",
      "type": "function"
    },
    {
      "inputs": [
        {
          "internalType": "address",
          "name": "",
          "type": "address"
        }
      ],
      "name": "userProfiles",
      "outputs": [
        {
          "internalType": "string",
          "name": "username",
          "type": "string"
        },
        {
          "internalType": "uint256",
          "name": "registrationDate",
          "type": "uint256"
        },
        {
          "internalType": "bool",
          "name": "isActive",
          "type": "bool"
        },
        {
          "internalType": "uint256",
          "name": "lastActivity",
          "type": "uint256"
        },
        {
          "internalType": "string",
          "name": "profileImageHash",
          "type": "string"
        }
      ],
      "stateMutability": "view",
      "type": "function"
    },
    {
      "inputs": [
        {
          "internalType": "string",
          "name": "",
          "type": "string"
        }
      ],
      "name": "usernameToAddress",
      "outputs": [
        {
          "internalType": "address",
          "name": "",
          "type": "address"
        }
      ],
      "stateMutability": "view",
      "type": "function"
    },
    {
      "inputs": [
        {
          "internalType": "address",
          "name": "token",
          "type": "address"
        }
      ],
      "name": "withdrawPenalties",
      "outputs": [],
      "stateMutability": "nonpayable",
      "type": "function"
    },
    {
      "inputs": [
        {
          "internalType": "uint256",
          "name": "lockId",
          "type": "uint256"
        }
      ],
      "name": "withdrawSavings",
      "outputs": [],
      "stateMutability": "nonpayable",
      "type": "function"
    }
  ],
  "bytecode": "0x608060405234801561001057600080fd5b5060405161406138038061406183398101604081905261002f91610378565b6001600160a01b03811661008a5760405162461bcd60e51b815260206004820152601560248201527f496e76616c6964206f776e65722061646472657373000000000000000000000060448201526064015b60405180910390fd5b6001600160a01b0386166100ce5760405162461bcd60e51b815260206004820152601560248201526000805160206140418339815191526044820152606401610081565b6001600160a01b0385166101125760405162461bcd60e51b815260206004820152601560248201526000805160206140418339815191526044820152606401610081565b6001600160a01b0384166101565760405162461bcd60e51b815260206004820152601560248201526000805160206140418339815191526044820152606401610081565b6001600160a01b03831661019a5760405162461bcd60e51b815260206004820152601560248201526000805160206140418339815191526044820152606401610081565b6001600160a01b0382166101de5760405162461bcd60e51b815260206004820152601560248201526000805160206140418339815191526044820152606401610081565b60048054610100600160a81b0319166101006001600160a01b038981169190910291909117909155600580546001600160a01b0319908116888416179091556006805482168784161790556007805482168684161790556008805490911691841691909117905561024e8161030c565b506001600160a01b039485166000818152600e602090815260408083208054600160ff199182168117909255988a1680855282852080548b1683179055978a1680855282852080548b1683179055968a1680855282852080548b1683179055959099168084528184208054909916909917909755815460ff60a01b19168255918152601390915284812069d3c21bcecceda10000009081905593815284812084905591825283822083905581528281208290559283529120556103ec565b600080546001600160a01b038381166001600160a01b0319831681178455604051919092169283917f8be0079c531659141344cd1fd0a4f28419497f9722a3daafe3b4186f6b6457e09190a35050565b80516001600160a01b038116811461037357600080fd5b919050565b60008060008060008060c0878903121561039157600080fd5b61039a8761035c565b95506103a86020880161035c565b94506103b66040880161035c565b93506103c46060880161035c565b92506103d26080880161035c565b91506103e060a0880161035c565b90509295509295509295565b613c46806103fb6000396000f3fe608060405234801561001057600080fd5b50600436106102a05760003560e01c80639b1b99a311610167578063bc5542c0116100ce578063e040e9a011610087578063e040e9a01461069e578063e7ee4b79146106a6578063eae2a639146106ae578063f2fde38b146106c1578063f69c6dec146106d4578063f825f143146106e757600080fd5b8063bc5542c014610627578063c9d3cc6a14610631578063d4bcdfa114610644578063d613075014610657578063d6ed24e114610678578063de9864501461068b57600080fd5b8063ab37f48611610120578063ab37f4861461058e578063ac4b457a146105b1578063ad84f341146105c4578063adbfb850146105cd578063b187bd26146105d5578063bb21615a146105e957600080fd5b80639b1b99a31461050d578063a57c29de14610517578063a5de0fe614610540578063a84d8eb014610560578063aa33fedb14610568578063aa3ce1831461057b57600080fd5b80634a42fc891161020b5780637ad3def2116101c45780637ad3def2146104a65780638456cb59146104b95780638da5cb5b146104c15780638f1f2aa0146104d2578063976846e9146104e5578063987ee156146104ed57600080fd5b80634a42fc891461041e5780634f1bfc9e1461044857806353653131146104535780635b15bfd91461045c57806376c7152b1461047c57806378b4330f1461049c57600080fd5b80631d2e4afd1161025d5780631d2e4afd146103925780631d9023cb146103a55780632cb5960f146103ce578063332d56d7146103e15780633e5a2dc7146104055780633f4ba83a1461041657600080fd5b806302293bc0146102a5578063024d2900146102d55780630a36614f146103035780630ea86ad814610326578063163f75221461033e5780631c88705d1461037d575b600080fd5b6006546102b8906001600160a01b031681565b6040516001600160a01b0390911681526020015b60405180910390f35b6102f56102e33660046132e2565b60116020526000908152604090205481565b6040519081526020016102cc565b600f54601054610311919082565b604080519283526020830191909152016102cc565b6004546102b89061010090046001600160a01b031681565b61036d61034c3660046132e2565b6001600160a01b03166000908152600c602052604090206002015460ff1690565b60405190151581526020016102cc565b61039061038b3660046132e2565b61071b565b005b6103906103a03660046133a9565b6108b7565b600054600154600160a01b90910460ff16906040805192151583526020830191909152016102cc565b6103906103dc366004613412565b610b84565b6103f46103ef3660046132e2565b6111b7565b6040516102cc9594939291906134c3565b6102f569d3c21bcecceda100000081565b6103906112fe565b61031161042c3660046132e2565b600b602052600090815260409020600181015460029091015482565b6102f56301e1338081565b6102f561012c81565b61046f61046a366004613508565b6113ce565b6040516102cc91906135d5565b6102f561048a3660046132e2565b60126020526000908152604090205481565b6102f56201518081565b6103906104b43660046132e2565b611569565b610390611792565b6000546001600160a01b03166102b8565b6007546102b8906001600160a01b031681565b6102f5611871565b6105006104fb3660046132e2565b611881565b6040516102cc91906135e8565b600f54151561036d565b61052a610525366004613508565b611a76565b6040516102cc9a9998979695949392919061364a565b6102f561054e3660046132e2565b60136020526000908152604090205481565b6102f5603281565b6102f56105763660046136bc565b611b6a565b6103906105893660046132e2565b611b9b565b61036d61059c3660046132e2565b600e6020526000908152604090205460ff1681565b6005546102b8906001600160a01b031681565b6102f560015481565b6102f5600181565b60005461036d90600160a01b900460ff1681565b604080518082018252600080825260209182015281518083018352600f548082526010549183019182528351908152905191810191909152016102cc565b6102f5620186a081565b61039061063f3660046133a9565b611d70565b6103906106523660046136bc565b611fa2565b61066a6106653660046132e2565b612127565b6040516102cc9291906136e6565b6008546102b8906001600160a01b031681565b610390610699366004613508565b6123b4565b6103906127ee565b6102f5601481565b6103906106bc3660046136bc565b612c5a565b6103906106cf3660046132e2565b612d6c565b61036d6106e2366004613788565b612e16565b6102b86106f5366004613788565b8051602081830181018051600d825292820191909301209152546001600160a01b031681565b3361072e6000546001600160a01b031690565b6001600160a01b03161461075d5760405162461bcd60e51b8152600401610754906137c5565b60405180910390fd5b6001600160a01b0381166000908152600e602052604090205460ff166107955760405162461bcd60e51b8152600401610754906137fa565b6001600160a01b038116600090815260126020526040902054156107fb5760405162461bcd60e51b815260206004820152601e60248201527f41637469766520736176696e677320657869737420666f7220746f6b656e00006044820152606401610754565b6001600160a01b038116600090815260116020526040902054156108615760405162461bcd60e51b815260206004820152601f60248201527f556e77697468647261776e2070656e616c7469657320666f7220746f6b656e006044820152606401610754565b6001600160a01b0381166000818152600e60209081526040808320805460ff191690556013909152808220829055517facb00cc2a3d7b5393605c6a193ca065623a20726be73ae645e7ebf8f558038da9190a250565b600054600160a01b900460ff16156108e15760405162461bcd60e51b815260040161075490613829565b8160006108ed82612ea4565b90506003815110156109115760405162461bcd60e51b815260040161075490613855565b6020815111156109335760405162461bcd60e51b815260040161075490613881565b60006001600160a01b0316600d8260405161094e91906138ac565b908152604051908190036020019020546001600160a01b0316146109ad5760405162461bcd60e51b81526020600482015260166024820152752ab9b2b93730b6b29030b63932b0b23c903a30b5b2b760511b6044820152606401610754565b336000908152600c602052604090206002015460ff1615610a105760405162461bcd60e51b815260206004820152601760248201527f5573657220616c726561647920726567697374657265640000000000000000006044820152606401610754565b6000610a1b85612ea4565b6040805160a081018252828152426020808301829052600183850152606083019190915260808201889052336000908152600c90915291909120815192935090918291908190610a6b908261394a565b5060208201516001820155604082015160028201805460ff19169115159190911790556060820151600382015560808201516004820190610aac908261394a565b5090505033600d83604051610ac191906138ac565b908152604080516020928190038301812080546001600160a01b0319166001600160a01b0395909516949094179093556000606084018181526080850183528452828401819052838201819052338152600b835220825180519192610b2b928492909101906131a9565b50602082015160018201556040918201516002909101555133907f89105a1c6a3c2fbd471255c66a31ccab604af5697f67d7e2e9a0028c5e4dbd9190610b749089904290613a09565b60405180910390a2505050505050565b60045460ff1615610ba75760405162461bcd60e51b815260040161075490613a2b565b6004805460ff19166001179055600054600160a01b900460ff1615610bde5760405162461bcd60e51b815260040161075490613829565b336000818152600a6020526040902054601411610c3d5760405162461bcd60e51b815260206004820152601760248201527f546f6f206d616e79206c6f636b7320666f7220757365720000000000000000006044820152606401610754565b336000908152600c602052604090206002015460ff16610c6f5760405162461bcd60e51b815260040161075490613a62565b60008411610cbf5760405162461bcd60e51b815260206004820152601d60248201527f416d6f756e74206d7573742062652067726561746572207468616e20300000006044820152606401610754565b6001600160a01b0382166000908152600e602052604090205460ff16610cf75760405162461bcd60e51b8152600401610754906137fa565b6001600160a01b038216600090815260136020526040902054841115610d5f5760405162461bcd60e51b815260206004820152601c60248201527f416d6f756e74206578636565647320746f6b656e206d6178696d756d000000006044820152606401610754565b620151808510158015610d7657506301e133808511155b610dba5760405162461bcd60e51b815260206004820152601560248201527424b73b30b634b2103637b1b590323ab930ba34b7b760591b6044820152606401610754565b6000835111610e035760405162461bcd60e51b81526020600482015260156024820152745469746c652063616e6e6f7420626520656d70747960581b6044820152606401610754565b603283511115610e465760405162461bcd60e51b815260206004820152600e60248201526d5469746c6520746f6f206c6f6e6760901b6044820152606401610754565b610e4f83612fef565b610e9b5760405162461bcd60e51b815260206004820152601a60248201527f5469746c652063616e6e6f7420626520776869746573706163650000000000006044820152606401610754565b610eb06001600160a01b038316333087613045565b600254600061012c610ec28842613aa5565b610ecc9190613aa5565b90506000604051806101400160405280848152602001336001600160a01b0316815260200188815260200142815260200183815260200160011515815260200160001515815260200160008152602001878152602001866001600160a01b0316815250905080600960008581526020019081526020016000206000820151816000015560208201518160010160006101000a8154816001600160a01b0302191690836001600160a01b0316021790555060408201518160020155606082015181600301556080820151816004015560a08201518160050160006101000a81548160ff02191690831515021790555060c08201518160050160016101000a81548160ff02191690831515021790555060e08201518160060155610100820151816007019081610ffa919061394a565b506101209190910151600890910180546001600160a01b0319166001600160a01b03909216919091179055336000818152600a6020908152604080832080546001818101835591855283852001889055938352600b825282208054808501825581845291832090910186905591820180548a9290611079908490613aa5565b909155505060028101805490600061109083613ab8565b9091555050600280549060006110a583613ab8565b9091555050600380549060006110ba83613ab8565b919050555087600f60010160008282546110d49190613aa5565b90915550506001600160a01b038616600090815260126020526040812080548a9290611101908490613aa5565b9091555050336000818152600c602052604090819020426003909101819055905186917f22cb0a7eb1c1b41f776ff2612b6793dc3b58dfb1ecd1d79f5c4b737f6a3091e891611155918d9189908e90613ad1565b60405180910390a3600f546010546040517fb1309c556abab8c6c8f6e211af9a3924734ad4adfe7d13a059f48280cb1e689e9261119a92908252602082015260400190565b60405180910390a150506004805460ff1916905550505050505050565b600c602052600090815260409020805481906111d2906138c8565b80601f01602080910402602001604051908101604052809291908181526020018280546111fe906138c8565b801561124b5780601f106112205761010080835404028352916020019161124b565b820191906000526020600020905b81548152906001019060200180831161122e57829003601f168201915b5050506001840154600285015460038601546004870180549697939660ff90931695509093509061127b906138c8565b80601f01602080910402602001604051908101604052809291908181526020018280546112a7906138c8565b80156112f45780601f106112c9576101008083540402835291602001916112f4565b820191906000526020600020905b8154815290600101906020018083116112d757829003601f168201915b5050505050905085565b336113116000546001600160a01b031690565b6001600160a01b0316146113375760405162461bcd60e51b8152600401610754906137c5565b600054600160a01b900460ff166113895760405162461bcd60e51b815260206004820152601660248201527510dbdb9d1c9858dd081a5cc81b9bdd081c185d5cd95960521b6044820152606401610754565b6000805460ff60a01b1916905560405142815233907f107553d8191d85b405879cf752997865edd48d94e20bda4dd27223c94b31a7cc906020015b60405180910390a2565b6113d66131f4565b60008281526009602052604090206001015482906001600160a01b03166114355760405162461bcd60e51b8152602060048201526013602482015272131bd8dac8191bd95cc81b9bdd08195e1a5cdd606a1b6044820152606401610754565b6000838152600960209081526040918290208251610140810184528154815260018201546001600160a01b0316928101929092526002810154928201929092526003820154606082015260048201546080820152600582015460ff808216151560a08401526101009182900416151560c0830152600683015460e0830152600783018054929392918401916114c9906138c8565b80601f01602080910402602001604051908101604052809291908181526020018280546114f5906138c8565b80156115425780601f1061151757610100808354040283529160200191611542565b820191906000526020600020905b81548152906001019060200180831161152557829003601f168201915b5050509183525050600891909101546001600160a01b031660209091015291505b50919050565b3361157c6000546001600160a01b031690565b6001600160a01b0316146115a25760405162461bcd60e51b8152600401610754906137c5565b6004546001600160a01b036101009091048116908216036115fa5760405162461bcd60e51b815260206004820152601260248201527153616d6520746f6b656e206164647265737360701b6044820152606401610754565b601054156116545760405162461bcd60e51b815260206004820152602160248201527f43616e6e6f742075706461746520776974682061637469766520736176696e676044820152607360f81b6064820152608401610754565b60045461010090046001600160a01b0316600090815260126020526040902054156116cb5760405162461bcd60e51b815260206004820152602160248201527f5065722d746f6b656e2061637469766520736176696e6773206e6f74207a65726044820152606f60f81b6064820152608401610754565b60045461010090046001600160a01b0316600090815260116020526040902054156117385760405162461bcd60e51b815260206004820181905260248201527f556e77697468647261776e20635553442070656e616c746965732065786973746044820152606401610754565b600480546001600160a01b03838116610100818102610100600160a81b031985161790945560405193909204169182907f0b1186973f810894b87ab0bfbee422fddcaad21b46dc705a561451bbb6bac11790600090a35050565b336117a56000546001600160a01b031690565b6001600160a01b0316146117cb5760405162461bcd60e51b8152600401610754906137c5565b600054600160a01b900460ff16156118255760405162461bcd60e51b815260206004820152601a60248201527f436f6e747261637420697320616c7265616479207061757365640000000000006044820152606401610754565b6000805460ff60a01b1916600160a01b17905542600181905560405133917f80170b5fcdd2bf1e0660ef4b8851f86685f64d41b1a19de1471947ece8725aac916113c491815260200190565b600061187c60035490565b905090565b6118b56040518060a00160405280606081526020016000815260200160001515815260200160008152602001606081525090565b6001600160a01b0382166119025760405162461bcd60e51b8152602060048201526014602482015273496e76616c69642075736572206164647265737360601b6044820152606401610754565b6001600160a01b0382166000908152600c602052604090819020815160a08101909252805482908290611934906138c8565b80601f0160208091040260200160405190810160405280929190818152602001828054611960906138c8565b80156119ad5780601f10611982576101008083540402835291602001916119ad565b820191906000526020600020905b81548152906001019060200180831161199057829003601f168201915b505050918352505060018201546020820152600282015460ff1615156040820152600382015460608201526004820180546080909201916119ed906138c8565b80601f0160208091040260200160405190810160405280929190818152602001828054611a19906138c8565b8015611a665780601f10611a3b57610100808354040283529160200191611a66565b820191906000526020600020905b815481529060010190602001808311611a4957829003601f168201915b5050505050815250509050919050565b6009602052600090815260409020805460018201546002830154600384015460048501546005860154600687015460078801805497986001600160a01b039097169795969495939460ff808516956101009095041693909190611ad8906138c8565b80601f0160208091040260200160405190810160405280929190818152602001828054611b04906138c8565b8015611b515780601f10611b2657610100808354040283529160200191611b51565b820191906000526020600020905b815481529060010190602001808311611b3457829003601f168201915b505050600890930154919250506001600160a01b03168a565b600a6020528160005260406000208181548110611b8657600080fd5b90600052602060002001600091509150505481565b60045460ff1615611bbe5760405162461bcd60e51b815260040161075490613a2b565b6004805460ff19166001179055600054600160a01b900460ff1615611bf55760405162461bcd60e51b815260040161075490613829565b33611c086000546001600160a01b031690565b6001600160a01b031614611c2e5760405162461bcd60e51b8152600401610754906137c5565b6001600160a01b03811660009081526011602052604090205480611c8d5760405162461bcd60e51b81526020600482015260166024820152752737903832b730b63a34b2b9903337b9103a37b5b2b760511b6044820152606401610754565b6001600160a01b038216600090815260116020526040812055600f548111611ccf5780600f6000016000828254611cc49190613b00565b90915550611cd59050565b6000600f555b611cfb611cea6000546001600160a01b031690565b6001600160a01b03841690836130b2565b816001600160a01b0316611d176000546001600160a01b031690565b6001600160a01b03167f4d7156a3d33ce514ab7634923888959c74e329303dca03f8f90b36d8890a970c8342604051611d5a929190918252602082015260400190565b60405180910390a350506004805460ff19169055565b600054600160a01b900460ff1615611d9a5760405162461bcd60e51b815260040161075490613829565b336000908152600c602052604090206002015460ff16611dcc5760405162461bcd60e51b815260040161075490613a62565b336000908152600c6020526040812090611de584612ea4565b8051602082012060405191925090611dfe908490613b85565b604051809103902014611f435760006001600160a01b0316600d82604051611e2691906138ac565b908152604051908190036020019020546001600160a01b031614611e855760405162461bcd60e51b81526020600482015260166024820152752ab9b2b93730b6b29030b63932b0b23c903a30b5b2b760511b6044820152606401610754565b600381511015611ea75760405162461bcd60e51b815260040161075490613855565b602081511115611ec95760405162461bcd60e51b815260040161075490613881565b604051600d90611eda908490613b85565b90815260405190819003602001812080546001600160a01b03191690553390600d90611f079084906138ac565b90815260405190819003602001902080546001600160a01b03929092166001600160a01b031990921691909117905581611f41828261394a565b505b825115611f5a5760048201611f58848261394a565b505b426003830181905560405133917fd9e53c4099d040960601cca2c1211ebed43a314a5679deec705ddb2c783f818a91611f94918591613a09565b60405180910390a250505050565b33611fb56000546001600160a01b031690565b6001600160a01b031614611fdb5760405162461bcd60e51b8152600401610754906137c5565b6001600160a01b0382166120215760405162461bcd60e51b815260206004820152600d60248201526c24b73b30b634b2103a37b5b2b760991b6044820152606401610754565b6001600160a01b0382166000908152600e602052604090205460ff16156120805760405162461bcd60e51b8152602060048201526013602482015272105b1c9958591e481dda1a5d195b1a5cdd1959606a1b6044820152606401610754565b600081116120c25760405162461bcd60e51b815260206004820152600f60248201526e04d6178206d757374206265203e203608c1b6044820152606401610754565b6001600160a01b0382166000818152600e60209081526040808320805460ff19166001179055601382529182902084905590518381527fe184914670d9e097e90729e2a9159866b30b1203952f0586bedca1d6fcf130a8910160405180910390a25050565b6060806001600160a01b0383166121775760405162461bcd60e51b8152602060048201526014602482015273496e76616c69642075736572206164647265737360601b6044820152606401610754565b6001600160a01b0383166000908152600a6020908152604091829020805483518184028101840190945280845290918301828280156121d557602002820191906000526020600020905b8154815260200190600101908083116121c1575b50505050509150815167ffffffffffffffff8111156121f6576121f6613304565b60405190808252806020026020018201604052801561222f57816020015b61221c6131f4565b8152602001906001900390816122145790505b50905060005b82518110156123ae576009600084838151811061225457612254613b91565b60209081029190910181015182528181019290925260409081016000208151610140810183528154815260018201546001600160a01b0316938101939093526002810154918301919091526003810154606083015260048101546080830152600581015460ff808216151560a08501526101009182900416151560c0840152600682015460e0840152600782018054918401916122f0906138c8565b80601f016020809104026020016040519081016040528092919081815260200182805461231c906138c8565b80156123695780601f1061233e57610100808354040283529160200191612369565b820191906000526020600020905b81548152906001019060200180831161234c57829003601f168201915b5050509183525050600891909101546001600160a01b0316602090910152825183908390811061239b5761239b613b91565b6020908102919091010152600101612235565b50915091565b60045460ff16156123d75760405162461bcd60e51b815260040161075490613a2b565b6004805460ff19166001179055600054600160a01b900460ff161561240e5760405162461bcd60e51b815260040161075490613829565b60008181526009602052604090206001015481906001600160a01b0316331461246e5760405162461bcd60e51b81526020600482015260126024820152712737ba103a3432903637b1b59037bbb732b960711b6044820152606401610754565b60008281526009602052604090206001015482906001600160a01b03166124cd5760405162461bcd60e51b8152602060048201526013602482015272131bd8dac8191bd95cc81b9bdd08195e1a5cdd606a1b6044820152606401610754565b600083815260096020526040902060050154839060ff166125255760405162461bcd60e51b81526020600482015260126024820152714c6f636b206973206e6f742061637469766560701b6044820152606401610754565b336000908152600c602052604090206002015460ff166125575760405162461bcd60e51b815260040161075490613a62565b60008481526009602052604090206005810154610100900460ff16156125b35760405162461bcd60e51b815260206004820152601160248201527020b63932b0b23c903bb4ba34323930bbb760791b6044820152606401610754565b600061012c82600401546125c79190613b00565b421090506000808360020154905082156126b757620186a0600185600201546125f09190613ba7565b6125fa9190613bbe565b91508360020154821061264f5760405162461bcd60e51b815260206004820152601960248201527f50656e616c74792063616c63756c6174696f6e206572726f72000000000000006044820152606401610754565b81846002015461265f9190613b00565b60088501546001600160a01b0316600090815260116020526040812080549293508492909190612690908490613aa5565b9091555050600f80548391906000906126aa908490613aa5565b9091555050600684018290555b60058401805461ffff1916610100179055336000908152600b602052604081206002860154600182018054929391929091906126f4908490613b00565b909155505060028101805490600061270b83613be0565b90915550506003805490600061272083613be0565b909155505060028501546010805460009061273c908490613b00565b9091555050600285015460088601546001600160a01b031660009081526012602052604081208054909190612772908490613b00565b9091555050336000818152600c602052604090204260039091015560088601546127a8916001600160a01b0390911690846130b2565b60408051838152602081018590528515159181019190915233908a907f54b63ef7702111ea26c7ad1623aef70ad7571af1e4a7207a647110f4a47ee7d890606001611155565b60045460ff16156128115760405162461bcd60e51b815260040161075490613a2b565b6004805460ff19166001179055336000908152600c602052604090206002015460ff166128505760405162461bcd60e51b815260040161075490613a62565b336000908152600c60205260409020600281015460ff166128b35760405162461bcd60e51b815260206004820152601b60248201527f4163636f756e7420616c726561647920646561637469766174656400000000006044820152606401610754565b336000908152600b6020908152604080832060018101546002820154600a8552838620805485518188028101880190965280865293969592949193869383018282801561291f57602002820191906000526020600020905b81548152602001906001019080831161290b575b5050505050905060005b8151811015612a4b57600082828151811061294657612946613b91565b60209081029190910181015160008181526009909252604090912060058101549192509060ff16801561298357506005810154610100900460ff16155b15612a4157600061012c826004015461299c9190613b00565b4210156129c557620186a0600183600201546129b89190613ba7565b6129c29190613bbe565b90505b60028201546129d4818a613aa5565b60058401805461ffff1916610100179055600684018390556008840154909950612a08906001600160a01b031633836130b2565b600283015460088401546001600160a01b031660009081526012602052604081208054909190612a39908490613b00565b909155505050505b5050600101612929565b5082600f6001016000828254612a619190613b00565b925050819055508160036000828254612a7a9190613b00565b909155505085546000908790612a8f906138c8565b80601f0160208091040260200160405190810160405280929190818152602001828054612abb906138c8565b8015612b085780601f10612add57610100808354040283529160200191612b08565b820191906000526020600020905b815481529060010190602001808311612aeb57829003601f168201915b5050336000908152600c602052604081209495509250612b2c91508390508261325d565b60006001830181905560028301805460ff1916905560038301819055612b5690600484019061325d565b5050600d81604051612b6891906138ac565b908152604080516020928190038301902080546001600160a01b0319169055336000908152600a9092528120612b9d91613297565b336000908152600b6020526040812090612bb78282613297565b50600060018201819055600290910155604080514281526020810187905233917f18d35dd2e877048b2bee35f3f5eabee33d1cd8e7346b4ae71b7794619ae7e159910160405180910390a2600f546010546040517fb1309c556abab8c6c8f6e211af9a3924734ad4adfe7d13a059f48280cb1e689e92612c3f92908252602082015260400190565b60405180910390a150506004805460ff191690555050505050565b33612c6d6000546001600160a01b031690565b6001600160a01b031614612c935760405162461bcd60e51b8152600401610754906137c5565b6001600160a01b0382166000908152600e602052604090205460ff16612ccb5760405162461bcd60e51b8152600401610754906137fa565b60008111612d0d5760405162461bcd60e51b815260206004820152600f60248201526e04d6178206d757374206265203e203608c1b6044820152606401610754565b6001600160a01b038216600081815260136020908152604091829020805490859055825181815291820185905292917fb7c8823eaef259940fa9123bd623975a9a11428095cfcef588ce379f7a164d48910160405180910390a2505050565b33612d7f6000546001600160a01b031690565b6001600160a01b031614612da55760405162461bcd60e51b8152600401610754906137c5565b6001600160a01b038116612e0a5760405162461bcd60e51b815260206004820152602660248201527f4f776e61626c653a206e6577206f776e657220697320746865207a65726f206160448201526564647265737360d01b6064820152608401610754565b612e13816130e8565b50565b600080612e2283612ea4565b9050600381511015612e465760405162461bcd60e51b815260040161075490613855565b602081511115612e685760405162461bcd60e51b815260040161075490613881565b60006001600160a01b0316600d82604051612e8391906138ac565b908152604051908190036020019020546001600160a01b0316149392505050565b8051606090829015612fe95780600081518110612ec357612ec3613b91565b6020910101516001600160f81b031916600160fd1b1480612f1557508060018251612eee9190613b00565b81518110612efe57612efe613b91565b6020910101516001600160f81b031916600160fd1b145b15612f625760405162461bcd60e51b815260206004820152601a60248201527f4e6f206c656164696e672f747261696c696e67207370616365730000000000006044820152606401610754565b60005b8151811015612fe7576000828281518110612f8257612f82613b91565b016020015160f81c905060418110801590612fa15750605a8160ff1611155b15612fde57612fb1816020613bf7565b60f81b838381518110612fc657612fc6613b91565b60200101906001600160f81b031916908160001a9053505b50600101612f65565b505b92915050565b600081815b815181101561303b5781818151811061300f5761300f613b91565b6020910101516001600160f81b031916600160fd1b14613033575060019392505050565b600101612ff4565b5060009392505050565b6040516001600160a01b0384811660248301528381166044830152606482018390526130ac9186918216906323b872dd906084015b604051602081830303815290604052915060e01b6020820180516001600160e01b038381831617835250505050613138565b50505050565b6040516001600160a01b038381166024830152604482018390526130e391859182169063a9059cbb9060640161307a565b505050565b600080546001600160a01b038381166001600160a01b0319831681178455604051919092169283917f8be0079c531659141344cd1fd0a4f28419497f9722a3daafe3b4186f6b6457e09190a35050565b600080602060008451602086016000885af18061315b576040513d6000823e3d81fd5b50506000513d91508115613173578060011415613180565b6001600160a01b0384163b155b156130ac57604051635274afe760e01b81526001600160a01b0385166004820152602401610754565b8280548282559060005260206000209081019282156131e4579160200282015b828111156131e45782518255916020019190600101906131c9565b506131f09291506132b1565b5090565b6040518061014001604052806000815260200160006001600160a01b03168152602001600081526020016000815260200160008152602001600015158152602001600015158152602001600081526020016060815260200160006001600160a01b031681525090565b508054613269906138c8565b6000825580601f10613279575050565b601f016020900490600052602060002090810190612e1391906132b1565b5080546000825590600052602060002090810190612e1391905b5b808211156131f057600081556001016132b2565b80356001600160a01b03811681146132dd57600080fd5b919050565b6000602082840312156132f457600080fd5b6132fd826132c6565b9392505050565b634e487b7160e01b600052604160045260246000fd5b600082601f83011261332b57600080fd5b813567ffffffffffffffff81111561334557613345613304565b604051601f8201601f19908116603f0116810167ffffffffffffffff8111828210171561337457613374613304565b60405281815283820160200185101561338c57600080fd5b816020850160208301376000918101602001919091529392505050565b600080604083850312156133bc57600080fd5b823567ffffffffffffffff8111156133d357600080fd5b6133df8582860161331a565b925050602083013567ffffffffffffffff8111156133fc57600080fd5b6134088582860161331a565b9150509250929050565b6000806000806080858703121561342857600080fd5b8435935060208501359250604085013567ffffffffffffffff81111561344d57600080fd5b6134598782880161331a565b925050613468606086016132c6565b905092959194509250565b60005b8381101561348e578181015183820152602001613476565b50506000910152565b600081518084526134af816020860160208601613473565b601f01601f19169290920160200192915050565b60a0815260006134d660a0830188613497565b866020840152851515604084015284606084015282810360808401526134fc8185613497565b98975050505050505050565b60006020828403121561351a57600080fd5b5035919050565b805182526000602082015161354160208501826001600160a01b03169052565b5060408201516040840152606082015160608401526080820151608084015260a082015161357360a085018215159052565b5060c082015161358760c085018215159052565b5060e082015160e08401526101008201516101406101008501526135af610140850182613497565b90506101208301516135cd6101208601826001600160a01b03169052565b509392505050565b6020815260006132fd6020830184613521565b602081526000825160a0602084015261360460c0840182613497565b905060208401516040840152604084015115156060840152606084015160808401526080840151601f198483030160a08501526136418282613497565b95945050505050565b8a815260018060a01b038a16602082015288604082015287606082015286608082015285151560a082015284151560c08201528360e0820152610140610100820152600061369c610140830185613497565b905060018060a01b0383166101208301529b9a5050505050505050505050565b600080604083850312156136cf57600080fd5b6136d8836132c6565b946020939093013593505050565b6040808252835190820181905260009060208501906060840190835b81811015613720578351835260209384019390920191600101613702565b50508381036020850152809150845180825260208201925060208160051b8301016020870160005b8381101561377a57601f19858403018652613764838351613521565b6020968701969093509190910190600101613748565b509098975050505050505050565b60006020828403121561379a57600080fd5b813567ffffffffffffffff8111156137b157600080fd5b6137bd8482850161331a565b949350505050565b6020808252818101527f4f776e61626c653a2063616c6c6572206973206e6f7420746865206f776e6572604082015260600190565b602080825260159082015274151bdad95b881b9bdd081dda1a5d195b1a5cdd1959605a1b604082015260600190565b60208082526012908201527110dbdb9d1c9858dd081a5cc81c185d5cd95960721b604082015260600190565b602080825260129082015271155cd95c9b985b59481d1bdbc81cda1bdc9d60721b604082015260600190565b602080825260119082015270557365726e616d6520746f6f206c6f6e6760781b604082015260600190565b600082516138be818460208701613473565b9190910192915050565b600181811c908216806138dc57607f821691505b60208210810361156357634e487b7160e01b600052602260045260246000fd5b601f8211156130e357806000526020600020601f840160051c810160208510156139235750805b601f840160051c820191505b81811015613943576000815560010161392f565b5050505050565b815167ffffffffffffffff81111561396457613964613304565b6139788161397284546138c8565b846138fc565b6020601f8211600181146139ac57600083156139945750848201515b600019600385901b1c1916600184901b178455613943565b600084815260208120601f198516915b828110156139dc57878501518255602094850194600190920191016139bc565b50848210156139fa5786840151600019600387901b60f8161c191681555b50505050600190811b01905550565b604081526000613a1c6040830185613497565b90508260208301529392505050565b6020808252601f908201527f5265656e7472616e637947756172643a207265656e7472616e742063616c6c00604082015260600190565b602080825260139082015272155cd95c881b9bdd081c9959da5cdd195c9959606a1b604082015260600190565b634e487b7160e01b600052601160045260246000fd5b80820180821115612fe957612fe9613a8f565b600060018201613aca57613aca613a8f565b5060010190565b848152836020820152826040820152608060608201526000613af66080830184613497565b9695505050505050565b81810381811115612fe957612fe9613a8f565b60008154613b20816138c8565b600182168015613b375760018114613b4c57613b7c565b60ff1983168652811515820286019350613b7c565b84600052602060002060005b83811015613b7457815488820152600190910190602001613b58565b505081860193505b50505092915050565b60006132fd8284613b13565b634e487b7160e01b600052603260045260246000fd5b8082028115828204841417612fe957612fe9613a8f565b600082613bdb57634e487b7160e01b600052601260045260246000fd5b500490565b600081613bef57613bef613a8f565b506000190190565b60ff8181168382160190811115612fe957612fe9613a8f56fea2646970667358221220798e6811d3bb8324523e2f93854dac02740f15bc5132a60f9bc0a087b8b4e2e964736f6c634300081c0033496e76616c696420746f6b656e20616464726573730000000000000000000000",
  "linkReferences": {},
  "deployedLinkReferences": {}
}